:020000040800F2
:1000000000000824ED370008193100081F310008EE
:10001000253100082B3100083131000800000000B4
:100020000000000000000000000000003731000860
:10003000453100080000000053310008613100081C
:100040003D3800083D3800083D3800083D380008BC
:100050003D3800083D3800083D3800083D380008AC
:100060003D3800083D3800083D3800086D31000873
:10007000813100083D3800083D3800083D3800084F
:100080003D3800083D3800083D3800083D3800087C
:100090003D3800083D3800083D3800083D3800086C
:1000A0003D3800083D3800083D3800083D3800085C
:1000B0003D38000865350008313600083D38000835
:1000C0003D3800083D3800083D3800083D3800083C
:1000D0003D380008953100083D3800083D380008DB
:1000E0003D3800083D380008000000003D38000899
:1000F0003D3800083D3800083D3800083D3800080C
:100100003D3800083D380008A13600083D38000899
:100110003D3800083D3800083D3800083D380008EB
:100120003D3800083D3800083D3800083D380008DB
:100130003D3800083D3800083D3800083D380008CB
:1001400000000000000000000000000000000000AF
:100150003D3800083D3800083D3800083D380008AB
:100160003D3800083D3800083D3800083D3800089B
:100170003D3800083D3800083D3800083D3800088B
:100180003D3800083D3800083D3800083D3800087B
:100190003D3800083D3800083D3800083D3800086B
:1001A0003D3800083D3800083D3800083D3800085B
:1001B0003D3800083D3800083D3800083D3800084B
:1001C0003D3800083D3800083D3800083D3800083B
:1001D0003D380008F1310008053200083D380008BC
:1001E0003D3800083D3800083D3800083D3800081B
:1001F0003D3800083D3800083D3800083D3800080B
:100200003D3800083D3800083D3800083D380008FA
:100210003D3800083D3800083D3800083D380008EA
:100220003D3800083D3800083D3800080000000057
:100230003D3800083D380008000000003D38000847
:100240003D3800083D3800083D3800083D380008BA
:100250003D3800083D3800083D3800083D380008AA
:100260003D3800083D3800083D3800083D3800089A
:100270003D3800083D3800083D3800080000000007
:100280003D3800083D3800083D38000800000000F7
:08029000000000003D380008E9
:1002A00010B5054C237833B9044B13B10448AFF3B0
:1002B00000800123237010BD5001002400000000C5
:1002C000E854010808B5034B1BB103490348AFF3D9
:1002D000008008BD0000000054010024E85401081B
:1002E00001F0FF01102A2BDB10F0070F08D010F8E7
:1002F000013B013A8B422DD010F0070F42B3F6D1EB
:10030000F0B441EA012141EA014122F007047FF003
:1003100000070023F0E80256083C85EA010586EA5A
:10032000010685FA47F5A3FA87F586FA47F6A5FA96
:1003300087F68EB9EED1F0BC01F0FF0102F00702A2
:1003400032B110F8013B013A83EA010313B1F8D14D
:100350000020704701387047002D06BF354603382E
:10036000073815F0010F07D1013015F4807F02BF67
:10037000013015F4C03F0130F0BC0138704700BFB8
:1003800053B94AB9002908BF00281CBF4FF0FF31FC
:100390004FF0FF3000F074B9ADF1080C6DE904CEF8
:1003A00000F006F8DDF804E0DDE9022304B0704750
:1003B0002DE9F047089D04468E46002B4DD18A4218
:1003C000944669D9B2FA82F252B101FA02F3C2F14B
:1003D000200120FA01F10CFA02FC41EA030E9440DC
:1003E0004FEA1C48210CBEFBF8F61FFA8CF708FBFD
:1003F00016E341EA034306FB07F199420AD91CEBD5
:10040000030306F1FF3080F01F81994240F21C8106
:10041000023E63445B1AA4B2B3FBF8F008FB10334E
:1004200044EA034400FB07F7A7420AD91CEB040483
:1004300000F1FF3380F00A81A74240F20781644453
:10044000023840EA0640E41B00261DB1D4400023D8
:10045000C5E900433146BDE8F0878B4209D9002D3C
:1004600000F0EF800026C5E9000130463146BDE8C6
:10047000F087B3FA83F6002E4AD18B4202D3824230
:1004800000F2F980841A61EB030301209E46002DDF
:10049000E0D0C5E9004EDDE702B9FFDEB2FA82F234
:1004A000002A40F09280A1EB0C014FEA1C471FFA92
:1004B0008CFE0126200CB1FBF7F307FB131140EA79
:1004C00001410EFB03F0884208D91CEB010103F146
:1004D000FF3802D2884200F2CB804346091AA4B208
:1004E000B1FBF7F007FB101144EA01440EFB00FEDC
:1004F000A64508D91CEB040400F1FF3102D2A64541
:1005000000F2BB800846A4EB0E0440EA03409CE7DF
:10051000C6F12007B34022FA07FC4CEA030C20FA8C
:1005200007F401FA06F31C43F9404FEA1C4900FAAC
:1005300006F3B1FBF9F8200C1FFA8CFE09FB181129
:1005400040EA014108FB0EF0884202FA06F20BD99C
:100550001CEB010108F1FF3A80F08880884240F2EC
:100560008580A8F102086144091AA4B2B1FBF9F030
:1005700009FB101144EA014100FB0EFE8E4508D92B
:100580001CEB010100F1FF346CD28E456AD90238B0
:10059000614440EA0840A0FB0294A1EB0E01A14295
:1005A000C846A64656D353D05DB1B3EB080261EB03
:1005B0000E0101FA07F722FA06F3F1401F43C5E9DD
:1005C000007100263146BDE8F087C2F12003D84013
:1005D0000CFA02FC21FA03F3914001434FEA1C4755
:1005E0001FFA8CFEB3FBF7F007FB10360B0C43EA47
:1005F000064300FB0EF69E4204FA02F408D91CEBF7
:10060000030300F1FF382FD29E422DD902386344F4
:100610009B1B89B2B3FBF7F607FB163341EA034194
:1006200006FB0EF38B4208D91CEB010106F1FF38E3
:1006300016D28B4214D9023E6144C91A46EA0046DA
:1006400038E72E46284605E70646E3E61846F8E66C
:100650004B45A9D2B9EB020864EB0C0E0138A3E7B5
:100660004646EAE7204694E74046D1E7D0467BE796
:10067000023B614432E7304609E76444023842E70E
:10068000704700BF80B58AB000AF07F11C0300229D
:100690001A605A609A603B4600221A605A609A605B
:1006A000DA601A615A619A61774B784A1A60764B20
:1006B0004FF440325A60744B00229A60724B012210
:1006C000DA60714B04221A616F4B00221A756E4B6F
:1006D00001225A756C4B0A229A616B4B00221A77E1
:1006E000694B00225A62684B00229A62664B0322D1
:1006F000DA62654B4FF480521A63634B00225A63EF
:10070000614B002283F838205F4803F0A3FB0346C7
:10071000002B01D001F0A6FA40F2FF7200215A48E6
:1007200004F026FC0346002B01D001F09BFA584B45
:100730003B6006237B600723BB6040F2FF73FB60D6
:1007400004233B6100237B6100233B7600237B76FF
:100750003B4619464C4803F001FE0346002B01D0EE
:1007600001F080FA4B4B3B600C237B603B46194603
:10077000454803F0F3FD0346002B01D001F072FA67
:10078000454B3B6012237B603B4619463E4803F0D5
:10079000E5FD0346002B01D001F064FA3F4B3B60BE
:1007A00018237B603B461946374803F0D7FD0346C4
:1007B000002B01D001F056FA394B3B604FF48073A7
:1007C0007B603B461946304803F0C8FD0346002BCA
:1007D00001D001F047FA334B3B604FF483737B60E9
:1007E0003B461946284803F0B9FD0346002B01D0CB
:1007F00001F038FA2C4B3B604FF486737B603B462C
:100800001946214803F0AAFD0346002B01D001F050
:1008100029FA264B3B604FF489737B603B461946AF
:10082000194803F09BFD0346002B01D001F01AFA92
:100830001F4B3B604FF48C737B603B46194612485C
:1008400003F08CFD0346002B01D001F00BFA194B8D
:100850003B604FF400737B603B4619460A4803F047
:100860007DFD0346002B01D001F0FCF90A2212495C
:10087000054803F091FC0346002B01D001F0F2F98A
:1008800000BF2837BD4680BD8C01002400200240F7
:100890000800900C2000F0148000501D0004002A75
:1008A0000008302E0040C03A0080F03E0000214396
:1008B000000052471000C0106C01002480B588B0C1
:1008C00000AF3B1D00221A605A609A60DA601A611C
:1008D0005A619A613C4B3D4A1A603B4B4FF440329F
:1008E0005A60394B00229A60374B0122DA60364B4E
:1008F00004221A61344B00221A75334B01225A75B7
:10090000314B02229A61304B00221A772E4B002283
:100910005A622D4B00229A622B4B0322DA622A4B39
:100920004FF480521A63284B00225A63264B002250
:1009300083F83820244803F08DFA0346002B01D0B9
:1009400001F090F940F2FF7200211F4804F010FB03
:100950000346002B01D001F085F901237B600623BB
:10096000BB600723FB6040F2FF733B6104237B61A4
:100970000023BB6100237B773B1D1946124803F01F
:10098000EDFC0346002B01D001F06CF9104B7B60AD
:100990000C23BB603B1D19460B4803F0DFFC0346EC
:1009A000002B01D001F05EF90A4B022219460648DD
:1009B00003F0F2FB0346002B01D001F053F900BF16
:1009C0002037BD4680BD00BFF00100240060025802
:1009D000020030048001002480B592B000AF78603E
:1009E00007F1340300221A605A609A60DA601A61D3
:1009F00007F1240300221A605A609A60DA607B686B
:100A00001B68834A934240F0A080824BD3F8D830D1
:100A1000804A43F02003C2F8D8307E4BD3F8D83058
:100A200003F020033B623B6A7A4BD3F8E030794A0B
:100A300043F00403C2F8E030764BD3F8E03003F023
:100A40000403FB61FB69734BD3F8E030714A43F058
:100A50000103C2F8E0306F4BD3F8E03003F001033C
:100A6000BB61BB696B4BD3F8E0306A4A43F00203C9
:100A7000C2F8E030674BD3F8E03003F002037B614B
:100A80007B6903237B630323BB630023FB6307F1C1
:100A900034031946604807F053FCCF237B630323DC
:100AA000BB630023FB6307F1340319465B4807F07F
:100AB00047FC02237B630323BB630023FB6307F133
:100AC00034031946564807F03BFC524BD3F8D83054
:100AD000504A43F00103C2F8D8304E4BD3F8D83017
:100AE00003F001033B613B694E4B4F4A1A604D4B8B
:100AF00009225A604B4B00229A604A4B0022DA606E
:100B0000484B4FF480621A61464B4FF400625A61C1
:100B1000444B4FF400529A61424B4FF48072DA61B9
:100B2000404B00221A623F4B00225A623D4804F0BB
:100B300079FD0346002B01D001F094F87B68394A17
:100B4000DA64384A7B6893635EE07B681B68374AE7
:100B5000934259D12F4BD3F8E0302E4A43F08073A3
:100B6000C2F8E0302B4BD3F8E03003F08073FB6029
:100B7000FB68284BD3F8E030264A43F00403C2F860
:100B8000E030244BD3F8E03003F00403BB60BB68D3
:100B90004FF080614FF0806002F038FF4FF000614D
:100BA0004FF0006002F032FF214B224A1A60204BC6
:100BB00073225A601E4B00229A601D4B0022DA609D
:100BC0001B4B4FF480621A61194B4FF400625A615B
:100BD000174B4FF400529A61154B4FF48072DA6153
:100BE000134B00221A62124B00225A62104804F082
:100BF00019FD0346002B01D001F034F87B680C4A44
:100C0000DA640B4A7B68936300BF4837BD4680BDFA
:100C10000020024000440258000802580000025818
:100C200000040258540200241000024000600258E0
:100C3000CC0200242800024080B485B000AF164BDF
:100C4000FB602023BB60BB68002B1DDDFB6803F04D
:100C50001F02BB6813447B60FB683B60BFF34F8F90
:100C600000BF0E4A3B68C2F85C323B6820333B60F1
:100C70007B68203B7B607B68002BF2DCBFF34F8FEF
:100C800000BFBFF36F8F00BF00BF00BF1437BD466A
:100C90005DF8047B704700BF6C01002400ED00E0AC
:100CA00080B582B000AF78604FF48162002178682F
:100CB00013F0B2FF00BF0837BD4680BD80B483B0DB
:100CC00000AF78607B68D3F800247B68D3F80434E5
:100CD000D31AC3F3090318460C37BD465DF8047BED
:100CE000704780B483B000AF78607B68D3F8042489
:100CF0007B68D3F80034D31A03F2FF33C3F309033C
:100D000018460C37BD465DF8047B704780B586B049
:100D100000AFF860B9607A6000237B61F868FFF784
:100D2000E0FF02467B68934202D94FF0FF331CE09C
:100D300000237B6114E0BA687B691A44FB68D3F82E
:100D400000341178FA68D154FB68D3F800340133C9
:100D5000C3F30902FB68C3F800247B6901337B619C
:100D60007A697B689A42E6D37B6818461837BD4695
:100D700080BD80B586B000AFF860B9607A600023AE
:100D80007B61F868FFF79AFF02467B68934205D8BB
:100D9000BB68002B02D07B68002B02D14FF0FF33E1
:100DA0001CE000237B6114E0FB68D3F80424B968DD
:100DB0007B690B44F9688A5C1A70FB68D3F80434C9
:100DC0000133C3F30902FB68C3F804247B690133D0
:100DD0007B617A697B689A42E6D37B68184618374C
:100DE000BD4680BD80B582B000AF7860044A002166
:100DF000786813F011FF00BF0837BD4680BD00BF03
:100E0000881A060080B483B000AF78607B6803F571
:100E1000C223D3F8802A7B6803F5C223D3F8843A2F
:100E2000D21A094B1344DA090849A1FB021212092C
:100E3000054901FB02F29A1A134618460C37BD46C3
:100E40005DF8047B704700BF801A0600598B4F0184
:100E500080B483B000AF78607B6803F5C223D3F819
:100E6000842A7B6803F5C223D3F8803AD21A094B4F
:100E70001344DA090849A1FB02121209074901FBD0
:100E800002F29A1A134618460C37BD465DF8047BE9
:100E9000704700BF7F1A0600598B4F01801A060069
:100EA00080B586B000AFF860B9607A6000237B61DE
:100EB000F868FFF7CDFF02467B68934202D94FF0F6
:100EC000FF3329E000237B6121E0BA687B691A4483
:100ED000FB6803F5C223D3F8803A1178FA68D1543D
:100EE000FB6803F5C223D3F8803A5A1CD3090C4996
:100EF000A1FB03131B090B4901FB03F3D31AFA6887
:100F000002F5C222C2F8803A7B6901337B617A69BB
:100F10007B689A42D9D37B6818461837BD4680BD96
:100F2000598B4F01801A060080B586B000AFF8607B
:100F3000B9607A6000237B61F868FFF763FF0246BF
:100F40007B68934205D8BB68002B02D07B68002BDE
:100F500002D14FF0FF3329E000237B6121E0FB68E1
:100F600003F5C223D3F8842AB9687B690B44F96876
:100F70008A5C1A70FB6803F5C223D3F8843A5A1CC2
:100F8000D3090C49A1FB03131B090B4901FB03F314
:100F9000D31AFA6802F5C222C2F8843A7B69013397
:100FA0007B617A697B689A42D9D37B681846183787
:100FB000BD4680BD598B4F01801A060080B58AB0AE
:100FC00000AF3B1D24220021184613F025FE1B4BC9
:100FD0001B4A1A60194804F05BF90346002B01D044
:100FE00000F040FE00237B600023BB600223FB6017
:100FF00001233B6100237B613B1D002219460F4802
:1010000004F0E0F90346002B01D000F02BFE3B1D5D
:1010100010221946094804F0D5F90346002B01D0E7
:1010200000F020FE0021054804F054F91021034887
:1010300004F050F900BF2837BD4680BD44030024AA
:101040000074004080B58AB000AF786007F11403E7
:1010500000221A605A609A60DA601A617B681B6825
:10106000184A934229D1184BD3F8E830164A43F076
:101070000053C2F8E830144BD3F8E83003F00053C3
:101080003B613B69104BD3F8E0300F4A43F001035A
:10109000C2F8E0300C4BD3F8E03003F00103FB6002
:1010A000FB6830237B610323BB610023FB6107F1F5
:1010B00014031946054807F043F900BF2837BD4619
:1010C00080BD00BF00740040004402580000025878
:1010D00080B584B000AF0346FB80FB8807EE903AF2
:1010E000B8EE677B87ED027B97ED026B9FED105B9F
:1010F00086EE057B87ED027B97ED027B9FED0E6B05
:1011000027EE066B9FED0E5B86EE057B87ED027B7F
:1011100097ED027BFCEEC77B17EE903A0022002190
:10112000094804F029F900BF1037BD4680BD00BF53
:101130000000000000408F40000000000000B040B0
:101140006666666666660A40440300240000000086
:1011500080B584B000AF0346FB80FB8807EE903A71
:10116000B8EE677B87ED027B97ED026B9FED105B1E
:1011700086EE057B87ED027B97ED027B9FED0E6B84
:1011800027EE066B9FED0E5B86EE057B87ED027BFF
:1011900097ED027BFCEEC77B17EE903A0022102100
:1011A000094804F0E9F800BF1037BD4680BD00BF14
:1011B0000000000000408F40000000000000B04030
:1011C0006666666666660A404403002480B582B09F
:1011D00000AF0346FB80042004F03EF8FB88034A7E
:1011E000136000BF0837BD4680BD00BF5803002410
:1011F00080B58CB000AF07F11C0300221A605A6062
:101200009A60DA601A61564BD3F8E030544A43F0E2
:101210001003C2F8E030524BD3F8E03003F0100373
:10122000BB61BB694E4BD3F8E0304D4A43F0040339
:10123000C2F8E0304A4BD3F8E03003F004037B619E
:101240007B69474BD3F8E030454A43F08003C2F84E
:10125000E030434BD3F8E03003F080033B613B695F
:101260003F4BD3F8E0303E4A43F00103C2F8E03090
:101270003B4BD3F8E03003F00103FB60FB68384BD5
:10128000D3F8E030364A43F00203C2F8E030344B82
:10129000D3F8E03003F00203BB60BB68304BD3F8F7
:1012A000E0302F4A43F00803C2F8E0302C4BD3F86B
:1012B000E03003F008037B607B684FF67F43FB61FF
:1012C00003233B6200237B6207F11C031946254878
:1012D00007F036F84FF6C053FB6103233B6200234F
:1012E0007B6207F11C0319461F4807F029F84FF6E7
:1012F000FC73FB6103233B6200237B6207F11C0349
:1013000019461A4807F01CF84FF6FF73FB610323D8
:101310003B6200237B6207F11C031946144807F067
:101320000FF84FF40143FB6103233B6200237B6210
:1013300007F11C0319460F4807F002F88023FB61F0
:1013400001233B6200237B620023BB6207F11C0385
:101350001946054806F0F4FF00BF3037BD4680BD92
:1013600000440258001002580008025800040258B5
:10137000000C02580000025880B584B000AFF8603D
:10138000B9607A607B689BB21A46F968B86800F069
:1013900079FD00BF1037BD4680BD80B584B000AF79
:1013A000F860B9607A607B689BB21A46F968B868E1
:1013B00000F0D2FD00BF1037BD4680BD80B582B0C1
:1013C00000AF02237B604FF480720021584813F075
:1013D00023FC4FF4807256490020FFF7CDFF544B99
:1013E0001B8840F6E442934204D9514B64221A8090
:1013F00001237B604E4B5B8840F6E442934204D964
:101400004B4B64225A8001237B60494B9B88002B05
:1014100005D0474B9B884FF6FF72934204D1444B53
:10142000F0229A8001237B60414BDB88002B05D0A2
:101430003F4BDB884FF6FF72934205D13C4B4FF494
:10144000FA72DA8001237B60394B1B89002B05D0AF
:10145000374B1B894FF6FF72934207D1344BDB8821
:101460005B089AB2324B1A8101237B60304B5B8957
:10147000022B10D02E4B5B89042B0CD02C4B5B899C
:10148000082B08D02A4B5B89102B04D0284B022252
:101490005A8101237B60264B9B89022B10D0244B61
:1014A0009B89042B0CD0224B9B89082B08D0204B06
:1014B0009B89102B04D01E4B02229A8101237B6052
:1014C0001B4BDB89002B05D0194BDB894FF6FF72D4
:1014D000934204D1164BF022DA8101237B60144B36
:1014E0001B8A002B05D0124B1B8A4FF6FF729342CA
:1014F00004D10F4B64221A8201237B600C4B5B8A60
:10150000022B04D00A4B02225A8201237B607B68A3
:10151000012B08D14FF4807205490020FFF73DFFF1
:10152000044802F059F900BF0837BD4680BD00BF2E
:10153000302A06240055010880B500AF064B1B6811
:10154000013B054A1360044B1B68002B02D1034882
:1015500000F042FF00BF80BD302B0624FC2906248A
:1015600080B500AF0848FFF79BFB0848FFF798FBE2
:101570000748FFF795FB0748FFF734FCFFF75CFBD4
:10158000FFF71CFF00BF80BD5C030024640700243C
:101590006C0B0024740F002480B5ADF6080D00AF6D
:1015A0000023C7F800380023C7F804381648FFF7AF
:1015B00085FBC7F80408D7F80438002B1ED0D7F8ED
:1015C0000438B3F5806F03D94FF48063C7F804384B
:1015D0003B464FF480620021184613F01DFB3B464A
:1015E000D7F8042819460848FFF7C3FBD7F8043892
:1015F00099B23B460022184601F0C0F900BF07F639
:101600000807BD4680BD00BF6407002480B586B0D2
:1016100000AF08237B610023BB600023FB60002335
:101620003B613B695A1C3A6118333B44A02203F8E2
:10163000102C3B695A1C3A6118333B44A12203F831
:10164000102C3B6907F108021344184A92881A804B
:101650003B6902333B613B6907F108021344134ABB
:10166000128A1A803B6902333B613B6907F1080229
:10167000134400221A803B6902333B610C48FFF798
:10168000E7FB02467B699A4205D27A693B461946D6
:101690000748FFF749FC7A6907F10803194604482F
:1016A000FFF7FEFB00BF1837BD4680BD6C0100246C
:1016B000740F002480B582B000AF00237B605023FC
:1016C0003B601E4B93F90030012B2FD13B681A462B
:1016D00000211B4813F0A0FA184B93F90030012B9E
:1016E00026D11848FFF78EFB02463B689A4221D369
:1016F0003B681A4612491348FFF716FC124B0122A9
:101700001A703B6819460E4802F052F80E4B02223E
:101710001A7000F021F97B6801337B607B68002B35
:10172000D4DD00237B60FFF737FFCFE700BF02E087
:1017300000BF00E000BF0837BD4680BD00000024A8
:10174000342B0624740F00240100002480B400AF61
:1017500000BFBD465DF8047B7047000080B582B0D5
:1017600000AF786039607B681A883B681B889A42B2
:1017700007D03B681B881846FFF7AAFC5E4802F0BA
:101780002BF87B6802331A883B6802331B889A4225
:1017900008D03B6802331B881846FFF7D9FC57482E
:1017A00002F01AF87B6804331A883B6804331B88FC
:1017B0009A4207D17B6806331A883B6806331B8838
:1017C0009A4210D03B6806331B88013B9AB23B68B3
:1017D00004331B88013B9BB21946104601F0DAFD29
:1017E000474801F0F9FF7B6808331A883B680833E3
:1017F0001B889A4208D03B6808331B88184601F0C2
:10180000E7FE404801F0E8FF7B680A331A883B682E
:101810000A331B889A421DD03B680C331B88022B6D
:1018200013D03B680C331B88042B0ED03B680C3361
:101830001B88082B09D03B680C331B88102B04D065
:101840003B680C337A6852891A8000F035FC2E48C8
:1018500001F0C2FF7B680C331A883B680C331B888D
:101860009A421DD03B680C331B88022B13D03B6877
:101870000C331B88042B0ED03B680C331B88082BC1
:1018800009D03B680C331B88102B04D03B680C3309
:101890007A6892891A8000F061FC1C4801F09CFF74
:1018A0007B680E331A883B680E331B889A4207D137
:1018B0007B6810331A883B6810331B889A4204D027
:1018C00001F0C0FE124801F087FF3B6812331B880D
:1018D000012B05D10F4B01221A700F48FFF782FA36
:1018E0003B6812331B88012B02D00A4B02221A706C
:1018F00000BF0837BD4680BD48550108585501084E
:101900006855010874550108885501089855010863
:10191000A855010800000024740F002480B500AF12
:101920000B4B0C4A1A600A4B04225A60084B40F6D3
:10193000FF72DA60064B40F6FF729A60044806F0C8
:10194000AFFE0346002B01D000F08CF900BF80BD34
:10195000842B06240048005880B500AF024806F0EA
:10196000EEFE00BF80BD00BF842B062480B5A2B070
:1019700000AF01F065FF00F0C3F800F047F9FFF792
:1019800037FCFEF77FFEFEF799FF12F09FFBFFF793
:1019900015FB01F08FFEFFF7C1FF01F029FE01F0FA
:1019A00085F94FF4F070FFF711FC00F061F900F0D9
:1019B00041FAFFF7D5FD00F07FFB00F0CFFB494B6C
:1019C000DB891A46474B1B8A02FB03F3464A82FB1C
:1019D00003121A44D211DB17D31AC7F88030002340
:1019E0003B603B1D7C220021184613F015F93B4655
:1019F000D7F880203D49184613F016F9394B1B885B
:101A00001846FFF765FB374B5B881846FFF7A0FBCE
:101A1000344BDB88013B9AB2324B9B88013B9BB233
:101A20001946104601F0B6FC2E4B1B89184601F0F2
:101A3000CFFD01F007FE0023C7F88430294B5B8AF5
:101A4000012B2AD12A4B1A682A4B1B689A4205D9C6
:101A5000274B1B68274A1360FFF72CFE264B1A689A
:101A6000264B1B689A42E9D9234B1B68234A136013
:101A7000FFF792FDFFF76AFED7F884300133C7F80D
:101A80008430D7F88430092BD8DD0023C7F88430A0
:101A9000FFF762FFFFF750FDD0E7154B1A68154BB3
:101AA0001B689A4203D9124B1B68124A1360124BEF
:101AB0001A68124B1B689A42C0D90F4B1B680F4A19
:101AC0001360FFF769FDD7F884300133C7F884301D
:101AD000D7F88430092BB1DD0023C7F88430FFF735
:101AE0003BFFABE7302A062489888888C455010863
:101AF0005C3C0624603C0624543C0624583C0624E6
:101B000080B59CB000AF07F124034C220021184699
:101B100013F082F83B1D20220021184613F07CF8B8
:101B2000022008F01FF900233B60354B9B69344AC3
:101B300043F440439361324B9B6903F440433B6061
:101B4000304BDB6A2F4A43F00103D3622D4BDB6A33
:101B500003F001033B603B6800BF294B9B6903F422
:101B60000053B3F5005FF8D1274B9B6A23F00303C2
:101B7000254A43F00203936209237B624FF48033CA
:101B8000BB620123BB630223BB640223FB64052306
:101B90003B65C0237B650223BB651423FB650223E1
:101BA0003B6608237B660023BB660023FB6607F1C8
:101BB0002403184608F0ECFC0346002B01D000F08B
:101BC00051F83F237B600323BB600023FB600823A5
:101BD0003B6140237B614023BB614FF48063FB6129
:101BE00040233B623B1D0421184609F0FFF80346E1
:101BF000002B01D000F036F800BF7037BD4680BD25
:101C000000480258000400580044025880B5B0B0A3
:101C100000AF3B1DBC220021184612F0FDFF4FF41F
:101C200000237B601923BB60A023FB6004233B617E
:101C300002237B610223BB610023FB6120233B6203
:101C400000237B620023C7F8A4303B1D184609F02F
:101C500059FC0346002B01D000F004F800BFC03748
:101C6000BD4680BD80B400AF72B600BFFEE7000085
:101C700080B582B000AF00F021F800F0DBF8034639
:101C80001A460D4B1A800C4B1B884EF61672934267
:101C90000ED100F0B7F80023C3220021C02001F0CC
:101CA0000FF93023FB71FB1D0121184601F0ECF9FF
:101CB00000BF0837BD4680BD0200002480B582B059
:101CC00000AF0023FB71022000F022F80346FB71F5
:101CD000FB7903F00203002B0AD100F093F8FB79A3
:101CE00043F00203FB71FB791946022000F04EF825
:101CF000002301220021382001F0E2F8034B0122E9
:101D00001A7000BF0837BD4680BD00BF942B062463
:101D100080B584B000AF0346FB710023BB73002382
:101D2000FB73FB79032B0CD0032B0DDC012B02D0B2
:101D3000022B03D008E00523FB7308E03523FB7377
:101D400005E01523FB7302E00523FB7300BF0E4B78
:101D50001B78002B06D0F87B0023C322002101F062
:101D6000AFF805E0F87B00234122002101F0A8F83C
:101D700007F10E030121184601F06AF9BB7B1846F2
:101D80001037BD4680BD00BF942B062480B584B0BB
:101D900000AF03460A46FB711346BB710023FB7379
:101DA000FB79032B0CD0032B0DDC012B02D0022B73
:101DB00003D008E00123FB7308E03123FB7305E047
:101DC0001123FB7302E00123FB7300BF0C4B1B7854
:101DD000002B06D0F87B0023C322002101F070F80D
:101DE00005E0F87B00234122002101F069F8BB1DCA
:101DF0000121184601F048F900BF1037BD4680BDEB
:101E0000942B062480B500AF094B1B78002B06D01D
:101E1000002303220021062001F052F805E00023F0
:101E200001220021062001F04BF800BF80BD00BF59
:101E3000942B062480B582B000AF114B1B78002B89
:101E400006D00023EF220021902001F039F805E0B0
:101E5000002365220021902001F032F83B1D022171
:101E6000184601F0F5F83B791B021AB27B791BB2D8
:101E700013431BB2FB80FB8818460837BD4680BD64
:101E8000942B062480B584B000AFF860B960134687
:101E9000FB800823EF22B9680B2001F011F8FB88C2
:101EA0001946F86801F0D4F800BF1037BD4680BD70
:101EB00080B584B000AFF860B9601346FB80FFF7CF
:101EC000A1FF0023EF22B968022000F0F9FFFB8890
:101ED0001946F86801F0D8F800F0DFF800BF1037B5
:101EE000BD4680BD80B586B000AFF860B9601346CE
:101EF000FB80BB689BB2DBB29BB2C3F58073FB82F5
:101F0000FA88FB8A9A4201D8FB88FB82FB8A1A4630
:101F1000B968F868FFF7CCFFFA88FB8A9A4216D0B6
:101F2000FB8AFA681344FB60FB8ABA681344BB60FF
:101F3000FA88FB8AD31AFB80FB88B3F5807F03D92C
:101F40004FF48073FB82E1E7FB88FB82DEE700BF92
:101F500000BF1837BD4680BD80B588B000AFF860BF
:101F6000B9601346FB80404B3B61BB681B0BFB61B8
:101F7000BB689BB2C3F30B037B837B8BC3F580539E
:101F80003B83FA883B8B9A4201D8FB883B83FB69F1
:101F90001B034FF4805219463869FFF773FF002383
:101FA000FB820BE07A8BFB8A13441A463B6913448D
:101FB0001B78FF2B07D1FB8A0133FB82FA8A3B8B0C
:101FC0009A42EFD300E000BFFA8A3B8B9A4220D2BC
:101FD000F86900F04BF80023FB820DE0FB8AFA68F9
:101FE0001A44F98A7B8B0B4419463B690B441278DF
:101FF0001A70FB8A0133FB82FA8A3B8B9A42EDD33B
:10200000FB691B034FF4805219463869FFF76AFFDA
:1020100005E03B8B1A46B968F868FFF763FFFA885A
:102020003B8B9A421BD0FB690133FB6100237B830E
:102030003B8BFA681344FB603B8BBA681344BB606C
:10204000FA883B8BD31AFB80FB88B3F5805F03D9FA
:102050004FF480533B839AE7FB883B8397E700BFAD
:1020600000BF2037BD4680BD982B062480B582B0C6
:1020700000AF78607B681B037B60FFF7C3FE00F056
:102080000CF800232F227968202000F019FF00F0BF
:1020900004F800BF0837BD4680BD80B500AF00BF63
:1020A0000120FFF735FE034603F00103012BF7D0B3
:1020B00000BF00BF80BD000080B500AF244B1B688F
:1020C000244A934202D1224806F043FC204B214A85
:1020D0001A601F4B40229A601D4B00221A611C4B54
:1020E00000225A601A4B00229A611B4B5B89022B1B
:1020F00003D1174B00225A6119E0174B5B89042B5F
:1021000004D1134B4FF480425A6110E0124B5B89AB
:10211000082B04D10E4B4FF400425A6107E00E4BDE
:102120005B89102B03D10A4B4FF440425A61084B94
:102130000022DA61064806F013FB0346002B01D0AB
:10214000FFF790FD024806F0D3FB00BF80BD00BF43
:10215000983B062400900040302A062480B500AF4A
:10216000244B1B68244A934202D1224806F0F1FB1B
:10217000204B214A1A601F4B40229A601D4B0022BF
:102180001A611C4B00225A601A4B00229A611B4BA9
:102190009B89022B03D1174B00225A6119E0174B80
:1021A0009B89042B04D1134B4FF480425A6110E0F9
:1021B000124B9B89082B04D10E4B4FF400425A61FD
:1021C00007E00E4B9B89102B03D10A4B4FF4404282
:1021D0005A61084B0022DA61064806F0C1FA03464C
:1021E000002B01D0FFF73EFD024806F081FB00BF47
:1021F00080BD00BFCC3B062410900040302A06244E
:1022000080B58CB000AF786007F11C0300221A6023
:102210005A609A60DA601A617B681B68474A934289
:102220004ED1474B1B680133454A1360444B1B6832
:10223000012B0ED1434BD3F8EC30424A43F010034C
:10224000C2F8EC303F4BD3F8EC3003F01003BB6125
:10225000BB693C4BD3F8E0303A4A43F00403C2F880
:10226000E030384BD3F8E03003F004037B617B6946
:10227000344BD3F8E030334A43F00203C2F8E03085
:10228000304BD3F8E03003F002033B613B6930236D
:10229000FB6103233B6200237B6207F11C031946A9
:1022A000294806F04DF80123FB6103233B6200231C
:1022B0007B6207F11C031946244806F041F838E018
:1022C0007B681B68224A934233D11D4B1B68013344
:1022D0001B4A13601A4B1B68012B0ED1194BD3F804
:1022E000EC30184A43F01003C2F8EC30154BD3F829
:1022F000EC3003F01003FB60FB68124BD3F8E030C6
:10230000104A43F01003C2F8E0300E4BD3F8E0302F
:1023100003F01003BB60BB684FF46073FB610323E1
:102320003B6200237B6207F11C031946094806F053
:1023300007F800BF3037BD4680BD00BF00900040A9
:10234000003C0624004402580008025800040258C9
:10235000109000400010025880B483B000AF786045
:10236000396000BF0C37BD465DF8047B7047000044
:1023700080B485B000AF78600B467B80FF23FB7391
:10238000FF23BB7311E07B685A1C7A601A78FB7BD1
:102390005340DBB2BB81BB890D4AD25CBB7B53404F
:1023A000FB73BB890B4AD35CBB737B885A1E7A8054
:1023B000002BE8D1FB7B1B021AB2BB7B1BB2134381
:1023C0001BB29BB218461437BD465DF8047B7047BC
:1023D000105601081057010880B582B000AF786030
:1023E00034220021786812F017FC7B6800221A70F2
:1023F000034B00221A6000BF0837BD4680BD00BFF6
:10240000302B062490B5CDB000AF07F59874A4F535
:10241000927420600C461046194607F59873A3F590
:10242000937322461A8007F59873A3F594730246B6
:102430001A8007F59873A3F229130A461A7000232D
:10244000C7F82C310023A7F82A316D4BC7F8243187
:102450000023A7F8223107F110034FF488720021FE
:10246000184612F0D9FB07F59873A3F593731A88F1
:1024700007F59873A3F594731B881344802B00F31E
:10248000BA80B7F822315A1CA7F822211A4607F55C
:102490009873A3F592731B68197807F59873A3F5E1
:1024A00090739954B7F822315A1CA7F822211A4682
:1024B00007F59873A3F590730321995407F5987362
:1024C000A3F594731B88DAB2B7F82231591CA7F828
:1024D000221119465300DAB207F59873A3F59073E9
:1024E0005A540023C7F82C3132E007F59873A3F54E
:1024F00093731A88D7F82C3113445B00D7F8242142
:1025000013441B88A7F82031B7F820311B0A99B271
:10251000B7F82221D7F82C315B001344C9B207F574
:102520009872A2F59072D154B7F82221D7F82C31C5
:102530005B0013440133B7F82021D1B207F598723C
:10254000A2F59072D154D7F82C310133C7F82C3151
:1025500007F59873A3F594731B88D7F82C219A423A
:10256000C3DB07F59873A3F594731B885B009AB2DD
:10257000B7F8223113449AB207F1100311461846F6
:10258000FFF7F6FE0346A7F82A31B7F82A311B0AEF
:1025900099B2B7F8222107F59873A3F594731B88B5
:1025A0005B001344C9B207F59872A2F59072D1543A
:1025B000B7F8222107F59873A3F594731B885B0085
:1025C00013440133B7F82A21D1B207F59872A2F566
:1025D0009072D154B7F8222107F59873A3F594733C
:1025E0001B885B0013449A1C07F110031146184620
:1025F000FFF7B2FE00E000BF07F59A77BD4690BD39
:10260000302A062490B5C7B000AF07F58C74A4F546
:10261000867420600C461046194607F58C73A3F5A6
:10262000877322461A8007F58C73A3F588730246D8
:102630001A8007F58C73A3F211130A461A7007F576
:102640008C73A3F58273244A184611464FF48073A5
:102650001A4612F0D3FA204BC7F8143107F58C73E1
:10266000A3F587731B887F2B30D807F58C73A3F5F0
:1026700087731B885B00D7F81421134407F58C720D
:10268000A2F5887212881A8007F58C73A3F58773F8
:102690001B88580007F58C73A3F587731B885B00B4
:1026A000D7F81421134402221946FEF776FE07F5E7
:1026B0008C73A3F5867308211868FFF74DFE07F1A8
:1026C000140305491846FFF749F800E000BF07F575
:1026D0008E77BD4690BD00BF302A062490B5ADF57B
:1026E0000D7D00AF07F50C74A4F5097420600C464D
:1026F0001046194607F50C73A3F2262322461A80CA
:1027000007F50C73A3F50A7302461A8007F50C73DC
:10271000A3F229230A461A7007F50C73A3F58673F2
:102720005D4A184611464FF480731A4612F066FA55
:102730000023C7F82C320023A7F82A320023A7F879
:102740002832554BC7F8243207F114034FF488722E
:102750000021184612F060FA07F50C73A3F509730F
:1027600007F114000622196812F048FA07F1140361
:1027700006211846FFF7FCFD0346A7F82A32B7F8F2
:102780002A321B0A9BB2DAB207F50C73A3F5077362
:102790009A71B7F82A32DAB207F50C73A3F507730A
:1027A000DA7107F50C73A3F226231A8807F50C7368
:1027B000A3F50A731B881344802B67DC0023C7F83A
:1027C0002C3235E0B7F82832DA1DD7F82C325B000E
:1027D00013441A4607F50C73A3F509731B681344D9
:1027E0001B781B021AB2B7F82832D91DD7F82C3241
:1027F0005B000B44013307F50C71A1F50971096801
:102800000B441B781BB2134319B207F50C73A3F2E8
:1028100026231A88D7F82C3213445B00D7F82422D9
:1028200013448AB21A80D7F82C320133C7F82C32FD
:1028300007F50C73A3F50A731B88D7F82C229A426C
:10284000C0DB07F50C73A3F226231B88580007F59D
:102850000C73A3F226231B885B00D7F82422D1181F
:1028600007F50C73A3F50A731B885B001A46FEF785
:1028700094FD07F1140308211846FFF76DFD07F5D5
:10288000927305491846FEF769FF00E000BF07F59F
:102890000D77BD4690BD00BF302A062480B586B0B6
:1028A00000AF78600B46FB700023FB82FB8A5A1C4A
:1028B000FA821A467B6813441B787B757B7D012B5B
:1028C00057D1FB8A5A1CFA821A467B6813441B783C
:1028D0003B75FB8A5A1CFA821A467B6813441B78A4
:1028E000FB74FB8A5A1CFA821A467B6813441B78D5
:1028F000BB74FB8A5A1CFA821A467B6813441B7805
:102900007B74FB8A5A1CFA821A467B6813441B7834
:102910003B74FB7C1B021AB2BB7C1BB213431BB281
:10292000FB817B7C1B021AB23B7C1BB213431BB2A4
:10293000BB813B7D032B06D1FB78BA89F989786886
:10294000FFF760FD16E03B7D062B08D1BB897B813C
:10295000FB787A89F9897868FFF754FE0AE03B7DB5
:10296000102B07D1FB78BA89F9897868FFF7B6FE92
:1029700000E000BF1837BD4680BD000080B584B0C0
:1029800000AF78600B467B8013467B700023FB8191
:102990009E4BBB600023FB817EE1FB897A68134478
:1029A0001A78BB685A70BB681B780B2B00F27181D8
:1029B00001A252F823F000BFE92900081F2A0008ED
:1029C000672A0008872A0008C92A0008E92A00089F
:1029D000372B0008572B00088B2B0008B52B00085D
:1029E000152C00083D2C0008BB685B78012B12D128
:1029F000BB685B8A5A1C91B2BA6851821946BB689F
:102A00005A78BB680B441A75BB6801221A70804B58
:102A100003221A603DE1B868FFF7DEFC39E1BB68CC
:102A20005B78032B07D0BB685B78062B03D0BB68B1
:102A30005B78102B13D1BB685B8A5A1C91B2BA68C1
:102A400051821946BB685A78BB680B441A75BB683B
:102A50005A78BB689A72BB6802221A7019E1B8688A
:102A6000FFF7BAFC15E1BB685B8A5A1C91B2BA68E1
:102A700051821946BB685A78BB680B441A75BB680B
:102A800003221A7005E1BB685B8A5A1C91B2BA68CE
:102A900051821946BB685A78BB680B441A75BB68EB
:102AA0009B7A032B03D0BB689B7A102B03D1BB68A6
:102AB00004221A70E8E0BB689B7A062B40F0E480A1
:102AC000BB6806221A70DFE0BB685B8A5A1C91B2B1
:102AD000BA6851821946BB685A78BB680B441A75AC
:102AE000BB6805221A70D4E0BB685B8A5A1C91B29D
:102AF000BA6851821946BB685A78BB680B441A758C
:102B0000BB689B7A032B0DD1BB680A221A70BB6885
:102B1000143306211846FFF72BFC03461A46BB6800
:102B2000DA80B3E0BB689B7A102B40F0AF80BB68C3
:102B300008221A70AAE0BB685B8A5A1C91B2BA6874
:102B400051821946BB685A78BB680B441A75BB683A
:102B500007221A709DE0BB685B8A5A1C91B2BA6862
:102B600051821946BB685A78BB680B441A75BB681A
:102B70000A221A70BB68143306211846FFF7F8FBC7
:102B800003461A46BB68DA8083E0BB685B8A5A1C3E
:102B900091B2BA6851821946BB685A78BB680B4437
:102BA0001A75BB685B789AB2BB68DA81BB68092288
:102BB0001A706EE0BB685B8A5A1C91B2BA68518287
:102BC0001946BB685A78BB680B441A75BB681B8AE8
:102BD00001339AB2BB681A82BB681A8ABB68DB8968
:102BE0009A4255D3BB680A221A70BB6803F11402DB
:102BF000BB68DB8907339BB219461046FFF7B8FB69
:102C000003461A46BB68DA8042E000BFFC2906246E
:102C1000302B0624BB685B8A5A1C91B2BA68518279
:102C20001946BB685A78BB680B441A75BB685A785A
:102C3000BB689A70BB680B221A702AE0BB685B8A7B
:102C40005A1C91B2BA6851821946BB685A78BB685F
:102C50000B441A75BB685A78BB68DA70BB68DB88AE
:102C60001946BB689B781B02BA68D2781343994215
:102C700006D1BB6814337A7811461846FFF70EFE6A
:102C8000B868FFF7A9FB04E000BF02E000BF00E066
:102C900000BFFB890133FB81FA897B889A42FFF4EC
:102CA0007CAE00BF00BF1037BD4680BD80B584B08C
:102CB00000AF1D4B1D4A1A601B4B01225A601A4B74
:102CC00004229A60184B1022DA604FF40003BB60B4
:102CD000BB6893FAA3F37B607B68FB60FB68002B07
:102CE00001D1202303E0FB68B3FA83F3DBB2013B9D
:102CF0001A460D4B1A610C4B4FF480625A610A4B15
:102D000000229A61084B0022DA61074B00221A6206
:102D1000054807F071F80346002B01D0FEF7A2FF2B
:102D200000BF1037BD4680BD043C06240050005251
:102D300080B5BAB000AF786007F1D40300221A6002
:102D40005A609A60DA601A6107F11803BC22002108
:102D5000184611F061FF7B681B68544A934240F0AB
:102D6000A0804FF00073BB6100233B6607F118039E
:102D7000184608F0C7FB0346002B01D0FEF772FF90
:102D80004B4BD3F8D4304A4A43F48043C2F8D43092
:102D9000474BD3F8D43003F480437B617B69444BC9
:102DA000D3F8E030424A43F01003C2F8E030404B21
:102DB000D3F8E03003F010033B613B693C4BD3F8A0
:102DC000E0303B4A43F00203C2F8E030384BD3F81E
:102DD000E03003F00203FB60FB68354BD3F8E030D2
:102DE000334A43F00803C2F8E030314BD3F8E03007
:102DF00003F00803BB60BB680423C7F8D430022388
:102E0000C7F8D8300023C7F8DC300323C7F8E03018
:102E10000923C7F8E43007F1D4031946254805F023
:102E20008FFA0423C7F8D4300223C7F8D830002320
:102E3000C7F8DC300323C7F8E0300923C7F8E430D3
:102E400007F1D40319461C4805F07AFA4FF4605391
:102E5000C7F8D4300223C7F8D8300023C7F8DC30D5
:102E60000323C7F8E0300923C7F8E43007F1D4039F
:102E70001946124805F064FA4023C7F8D4300223FB
:102E8000C7F8D8300123C7F8DC300323C7F8E03097
:102E90000A23C7F8E43007F1D4031946064805F0C1
:102EA0004FFA00BFE837BD4680BD00BF005000525A
:102EB000004402580010025800040258000C025846
:102EC00080B590B000AF396011461A460346FB71D9
:102ED0000B46BB7113467B71FB79BB603B68FB60A3
:102EE0007B79FB61BB7903F00303002B02D1002344
:102EF0003B6219E0BB7903F00303012B03D14FF4CC
:102F000080733B6210E0BB7903F00303022B03D113
:102F10004FF400733B6207E0BB7903F00303032B1C
:102F200002D14FF440733B62BB799B08DBB203F0E4
:102F30000303002B02D100237B621FE0BB799B08B7
:102F4000DBB203F00303012B03D14FF480637B62F8
:102F500014E0BB799B08DBB203F00303022B03D11F
:102F60004FF400637B6209E0BB799B08DBB203F09E
:102F70000303032B02D14FF440637B62BB791B092F
:102F8000DBB203F00303002B02D100237B611FE0BF
:102F9000BB791B09DBB203F00303012B03D14FF410
:102FA00080537B6114E0BB791B09DBB203F00303A0
:102FB000022B03D14FF400537B6109E0BB791B095D
:102FC000DBB203F00303032B02D14FF440537B61C8
:102FD000BB799B09DBB203F00303002B02D1002372
:102FE000FB621FE0BB799B09DBB203F00303012BFB
:102FF00003D14FF08073FB6214E0BB799B09DBB215
:1030000003F00303022B03D14FF00073FB6209E0CE
:10301000BB799B09DBB203F00303032B02D14FF012
:103020004073FB620023FB630023BB6200237B63CE
:103030000023BB6307F1080341F2883219460348B5
:1030400006F04EFF00BF4037BD4680BD043C06245D
:1030500080B582B000AF786039600A4B1B683A686F
:10306000013A1A6141F288327968064807F028F877
:103070000346002B01D1002300E001231846083746
:10308000BD4680BD043C062480B582B000AF7860A8
:1030900039600A4B1B683A68013A1A6141F288327A
:1030A0007968064806F07AFF0346002B01D1002319
:1030B00000E0012318460837BD4680BD043C0624C5
:1030C00080B582B000AF134BD3F8F430114A43F00F
:1030D0000203C2F8F4300F4BD3F8F43003F00203CC
:1030E0007B607B680B4BD3F8F4300A4A43F400430F
:1030F000C2F8F430074BD3F8F43003F400433B60DC
:103100003B6800F073FC022000F05CFC00BF083755
:10311000BD4680BD0044025880B400AFFEE780B4D5
:1031200000AFFEE780B400AFFEE780B400AFFEE77B
:1031300080B400AFFEE780B400AF00BFBD465DF8CD
:10314000047B704780B400AF00BFBD465DF8047BD0
:10315000704780B400AF00BFBD465DF8047B704788
:1031600080B500AF00F0DEFB00BF80BD80B500AFD2
:10317000024803F081FD00BF80BD00BF540200245F
:1031800080B500AF024803F077FD00BF80BD00BFEF
:10319000CC02002480B582B000AF0023FB71114B3C
:1031A0001B68DB6903F02003202B13D10E4B5B6AF5
:1031B000DBB2FB710D48FDF794FD0346002B06D0F2
:1031C000FB1D012219460948FDF7A0FD02E0074852
:1031D000FDF766FD03480BF0CDFD00BF0837BD4687
:1031E00080BD00BF64450624001001406407002430
:1031F00080B500AF024805F03DFD00BF80BD00BFB7
:10320000CC6A062480B500AF024805F047F800BF3D
:1032100080BD00BFCC02002480B586B000AF7860CE
:10322000144A154BD31A7B617B693B61134B1B68B6
:10323000002B02D1114B124A1A60104B1A687B689E
:1032400013443A699A4207D211F0AEFC03460C22AD
:103250001A604FF0FF3309E0084B1B68FB60074B17
:103260001A687B681344054A1360FB6818461837D0
:10327000BD4680BD0000082400400000503C0624EC
:103280002071062480B400AF374BD3F88830364A1B
:1032900043F47003C2F88830344B1B6803F00F030B
:1032A000062B07D8314B1B6823F00F032F4A43F03E
:1032B000070313602E4B1B682D4A43F00103136074
:1032C0002B4B00221A612A4B1A682949294B1340BB
:1032D0000B60264B1B6803F00803002B07D0234B21
:1032E0001B6823F00F03214A43F007031360204BB0
:1032F00000229A611E4B0022DA611D4B00221A62E5
:103300001B4B1D4A9A621A4B1C4ADA62184B1C4A24
:103310001A63174B00225A63154B194A9A63144BD0
:103320000022DA63124B164A1A64114B00225A64C7
:103330000F4B1B680E4A23F4802313600C4B0022B2
:103340001A66104B1A68104B1340B3F1005F02D29B
:103350000E4B01221A600E4B43F2D2021A6000BFDC
:10336000BD465DF8047B704700ED00E00020005290
:10337000004402587FEDF6EA000202020000FF015D
:10338000800201010010005C0000FFFF0881005175
:103390000040005280B582B000AF03460A46FB8071
:1033A0001346BB801B4B1B681B4A934206D10C2162
:1033B00018480AF0FDFC17480AF086FB154B164A20
:1033C0001A60BB88134A5360124B00229A60FB8834
:1033D000104AD3600F4B00221A610E480AF01DFB01
:1033E0000E4B60221A60FB885B089BB21A460B4B9F
:1033F0005A600A4B02229A600C22084905480AF0DA
:103400008DFE0C2103480AF0C5FB00BF0837BD46FE
:1034100080BD00BF643C062400040040B03C06248C
:1034200080B58AB000AF7860194BD3F8E830184AFD
:1034300043F00203C2F8E830154BD3F8E83003F04C
:1034400002033B613B69124BD3F8E030104A43F072
:103450000403C2F8E0300E4BD3F8E03003F004036D
:10346000FB60FB684FF400737B610223BB610123A7
:10347000FB6103233B6202237B6207F114031946BD
:10348000044804F05DFF00BF2837BD4680BD00BF83
:10349000004402580008025880B586B000AF78603A
:1034A0007B681B682B4A934217D12B4BD3F8E8302B
:1034B000294A43F00203C2F8E830274BD3F8E8303A
:1034C00003F002037B617B69032201211D2001F0CF
:1034D0008EFE1D2001F0A5FE38E07B681B681F4AA8
:1034E000934217D11C4BD3F8E8301B4A43F0040336
:1034F000C2F8E830184BD3F8E83003F004033B611E
:103500003B69032201211E2001F071FE1E2001F003
:1035100088FE1BE07B681B68114A934216D10E4B54
:10352000D3F8E8300C4A43F00803C2F8E8300A4BFD
:10353000D3F8E83003F00803FB60FB6800220021A9
:10354000322001F054FE322001F06BFE00BF18372C
:10355000BD4680BD00040040004402580008004001
:10356000000C004080B500AF02480AF0B7FC00BF75
:1035700080BD00BF643C062480B582B000AF786097
:103580007B680E4A934214D07B680D4A934205D162
:103590000C4B1B6801330B4A13600AE07B680A4A34
:1035A000934206D1094B1B680133084A1360FEF7AA
:1035B0002DF800BF0837BD4680BD00BF643C06241F
:1035C000CC3C0624543C0624183D06245C3C0624CE
:1035D00080B483B000AF7860044A7B68136400BF96
:1035E0000C37BD465DF8047B704700BF0004004007
:1035F00080B500AF0C4B0D4A1A600B4B45F6BF521D
:103600005A60094B00229A60074B40F2E732DA60B9
:10361000054B00221A6104480AF000F902480AF03A
:1036200055F900BF80BD00BFCC3C06240008004017
:1036300080B500AF02480AF051FC00BF80BD00BF5A
:10364000CC3C062480B500AF124B1B68124A934253
:1036500002D110480AF0B2F90E4B0F4A1A600F4B14
:10366000DB89013B1A460B4B5A600A4B00229A60D9
:103670000A4B1B8A013B1A46064BDA60054B0022B7
:103680001A6104480AF0CAF802480AF01FF900BF9C
:1036900080BD00BF183D0624000C0040302A0624DF
:1036A00080B500AF02480AF019FC00BF80BD00BF22
:1036B000183D062480B500AF104B114A1A600F4B1D
:1036C0004FF416525A600D4B00229A600B4B0022A9
:1036D000DA600A4B00221A61084B00229A61074BFC
:1036E0000C225A6105480BF008FA4FF400620549B4
:1036F00002480BF0E9FA00BF80BD00BF6445062414
:1037000000100140643D062480B58AB000AF7860A7
:103710007B681B68234A93423FD1234BD3F8E030A8
:10372000214A43F00103C2F8E0301F4BD3F8E030E8
:1037300003F001033B613B691B4BD3F8F0301A4A9D
:1037400043F01003C2F8F030174BD3F8F03003F019
:103750001003FB60FB684FF400737B610223BB61C5
:103760000123FB6102233B6207237B6207F1140301
:1037700019460E4804F0E4FD4FF480637B6107F1C5
:1037800014031946094804F0DBFD252001F049FD2A
:1037900003220321252001F02AFD00BF2837BD4662
:1037A00080BD00BF001001400044025800000258D4
:1037B00080B582B000AF786039603B689AB241F260
:1037C0008833796803480BF0E8F900BF0837BD4635
:1037D00080BD00BF6445062480B483B000AF78602C
:1037E00000BF0C37BD465DF8047B7047DFF834D06E
:1037F000FFF748FD0C480D490D4A002302E0D4585C
:10380000C4500433C4188C42F9D30A4A0A4C00232A
:1038100001E013600432A242FBD311F0CBF9FEF7B2
:10382000A5F870470000082400000024500100247F
:1038300084580108500100241C710624FEE7000092
:1038400080B582B000AF032001F0C6FC07F084FC15
:103850000246154B9B691B0A03F00F031349CB5C0F
:1038600003F01F0322FA03F37B600F4B9B6903F005
:103870000F030E4AD35C03F01F037A6822FA03F3A6
:103880000B4A13600B4A7B681360002000F014F8A9
:103890000346002B01D0012302E0FFF711FC0023B7
:1038A00018460837BD4680BD00440258105801082C
:1038B000080000240400002480B582B000AF7860C6
:1038C000154B1B78002B01D1012321E0134B1A6803
:1038D000114B1B7819464FF47A73B3FBF1F3B2FB2B
:1038E000F3F3184601F0ABFC0346002B01D0012393
:1038F0000EE07B680F2B0AD8002279684FF0FF306A
:1039000001F075FC064A7B681360002300E0012388
:1039100018460837BD4680BD10000024040000246E
:103920000C00002480B400AF064B1B781A46064BEF
:103930001B681344044A136000BFBD465DF8047B56
:10394000704700BF10000024F445062480B400AF87
:10395000034B1B681846BD465DF8047B704700BFEB
:10396000F445062480B584B000AF7860FFF7EEFF21
:10397000B8607B68FB60FB68B3F1FF3F05D00A4B82
:103980001B781A46FB681344FB6000BFFFF7DEFF9D
:103990000246BB68D31AFA689A42F7D800BF00BF44
:1039A0001037BD4680BD00BF1000002480B400AFBA
:1039B000034B1B681B0C1846BD465DF8047B704723
:1039C0000010005C80B483B000AF7860064B1B68C9
:1039D00023F0020204497B6813430B6000BF0C37DD
:1039E000BD465DF8047B7047003C005880B400AFD2
:1039F000054B1B68044A23F00103136000BFBD465A
:103A00005DF8047B704700BF003C005880B483B071
:103A100000AF78603960074B5A687B68DB431A4017
:103A200004493B6813434B6000BF0C37BD465DF84B
:103A3000047B70470004005880B483B000AF786006
:103A400039607B689B6823F47C123B681A437B686F
:103A50009A6000BF0C37BD465DF8047B704780B4A8
:103A600083B000AF786039607B689B6823F0E072B8
:103A70003B681A437B689A6000BF0C37BD465DF80F
:103A8000047B704780B483B000AF78607B689B682C
:103A900003F0E07318460C37BD465DF8047B7047B1
:103AA00080B487B000AFF860B9607A603B60FB68B3
:103AB00060331A46BB689B0013447B617B691B68BB
:103AC00003F000427B6803F0F8413B680B431A4364
:103AD0007B691A6000BF1C37BD465DF8047B7047E8
:103AE00080B485B000AFF860B9607A60FB681B698C
:103AF00023F4F042BB6803F01F03796801FA03F373
:103B00001A43FB681A6100BF1437BD465DF8047B99
:103B1000704780B487B000AFF860B9607A60FB6826
:103B200060331A46BB689B0013447B617B691B684A
:103B300023F000427B681A437B691A6000BF1C3780
:103B4000BD465DF8047B704780B483B000AF7860F9
:103B50007B68DB6803F44063002B01D1012300E0A4
:103B6000002318460C37BD465DF8047B704780B4CF
:103B700087B000AFF860B9607A60FB6830331A46EE
:103B8000BB681B0A9B0003F00C0313447B617B6939
:103B90001A68BB6803F01F031F2101FA03F3DB431C
:103BA0001A407B689B0E03F01F01BB6803F01F03E4
:103BB00001FA03F31A437B691A6000BF1C37BD4644
:103BC0005DF8047B704780B483B000AF78603960E3
:103BD0007B68DB6823F003023B681A437B68DA608A
:103BE00000BF0C37BD465DF8047B704780B487B0DA
:103BF00000AFF860B9607A60FB6814331A46BB689E
:103C00005B0E9B0003F0040313447B617B691A681D
:103C1000BB681B0D03F01F03072101FA03F3DB430D
:103C20001A40BB681B0D03F01F03796801FA03F308
:103C30001A437B691A6000BF1C37BD465DF8047BE0
:103C40007047000080B485B000AFF860B9607A605A
:103C5000FB68D3F8C020BB68C3F31303DB431A40EF
:103C60007B6803F018030849D940BB680B40C3F3D5
:103C700013031A43FB68C3F8C02000BF1437BD46C6
:103C80005DF8047B704700BFFFFF0F0080B483B076
:103C900000AF78607B689B6803F01F0318460C3701
:103CA000BD465DF8047B704780B483B000AF786098
:103CB0007B689A68044B13407A68936000BF0C37A6
:103CC000BD465DF8047B7047C0FFFF5F80B483B0E2
:103CD00000AF78607B689B6803F00053B3F1005F2E
:103CE00001D1012300E0002318460C37BD465DF8E2
:103CF000047B704780B483B000AF78607B689A68BB
:103D0000054B134043F080527B689A6000BF0C372C
:103D1000BD465DF8047B7047C0FFFF6F80B483B081
:103D200000AF78607B689B6803F08053B3F1805FDD
:103D300001D1012300E0002318460C37BD465DF891
:103D4000047B704780B483B000AF78607B689A686A
:103D5000054B134043F001027B689A6000BF0C37AB
:103D6000BD465DF8047B7047C0FFFF7F80B483B021
:103D700000AF78607B689A68054B134043F00202FD
:103D80007B689A6000BF0C37BD465DF8047B7047C6
:103D9000C0FFFF7F80B483B000AF78607B689B6812
:103DA00003F00103012B01D1012300E00023184699
:103DB0000C37BD465DF8047B704780B483B000AF1C
:103DC00078607B689B6803F00203022B01D101231A
:103DD00000E0002318460C37BD465DF8047B7047B1
:103DE00080B483B000AF78607B689A68054B13405D
:103DF00043F004027B689A6000BF0C37BD465DF853
:103E0000047B7047C0FFFF7F80B483B000AF786051
:103E10007B689B6803F00403042B01D1012300E0BD
:103E2000002318460C37BD465DF8047B704780B40C
:103E300083B000AF78607B689B6803F00803082BB1
:103E400001D1012300E0002318460C37BD465DF880
:103E5000047B704790B589B000AF78600023FB7792
:103E60000023BB607B68002B01D101238FE17B68BD
:103E7000DB68002B7B685B6D002B09D17868FCF751
:103E8000ABFD7B6800229A657B68002283F8502096
:103E90007B681B681846FFF719FF0346002B04D008
:103EA0007B681B681846FFF7FFFE7B681B68184697
:103EB000FFF734FF0346002B14D17B681B681846BC
:103EC000FFF718FF874B1B689B09874AA2FB032358
:103ED0009B090133BB6002E0BB68013BBB60BB6870
:103EE000002BF9D17B681B681846FFF717FF0346C4
:103EF000002B0DD17B685B6D43F010027B685A6527
:103F00007B689B6D43F001027B689A650123FB7718
:103F10007B681B681846FFF777FF78617B685B6DED
:103F200003F01003002B40F029817B69002B40F047
:103F300025817B685B6D23F4817343F002027B680B
:103F40005A657B681B681846FFF724FF0346002B61
:103F500036D17B681B68654A934204D07B681B6836
:103F6000634A93420ED16148FFF714FF044660484C
:103F7000FFF710FF03462343002B0CBF0123002350
:103F8000DBB208E05B48FFF705FF0346002B0CBFE0
:103F900001230023DBB2002B12D07B681B68534A3D
:103FA000934204D07B681B68514A934201D1524A24
:103FB00000E0524A7B685B6819461046FFF73CFDFB
:103FC000FFF7F4FC034641F20302934214D97B68E5
:103FD0009B68102B10D17B685B7D5A037B681B6B41
:103FE0001A437B689B681A437B681B7F1B0413433F
:103FF00043F00C03BB610DE07B685B7D5A037B687B
:104000001B6B1A437B689B681A437B681B7F1B04EE
:104010001343BB617B681B7F012B06D17B681B6A46
:10402000013B5B04BA691343BB617B685B6A002B8D
:1040300009D07B685B6A03F478727B689B6A1343E0
:10404000BA691343BB617B681B68DA682C4B134069
:104050007A681268B9690B43D3607B681B6818469D
:10406000FFF7D2FE38617B681B681846FFF7DFFE5A
:10407000F8603B69002B5FD1FB68002B5CD17B684B
:104080001B7D9A037B68DB6A1343BB617B681B68FB
:10409000DA681C4B13407A681268B9690B43D36025
:1040A0007B6893F83830012B30D17B685B6A002B3A
:1040B0007B681B681A69144B13407A68D26B013A0B
:1040C00011047A68126C11437A68526C11437A6851
:1040D000926C0A431A437B681B6842F001021A6122
:1040E0001CE000BF04000024632D3E0500200240B8
:1040F0000021024000600258002302400063025881
:1041000003C0F0FFFCBFFFFF1EF800FC7B681B68CC
:104110001A697B681B6822F001021A617B681B68C0
:104120001B6923F070417B685A6B7B681B680A43EC
:104130001A61786800F0E0FD7B68DB68012B0CD128
:104140007B681B681B6B23F00F017B689B695A1E01
:104150007B681B680A431A6307E07B681B681A6B5D
:104160007B681B6822F00F021A637B685B6D23F08B
:10417000030343F001027B685A6507E07B685B6DCF
:1041800043F010027B685A650123FB77FB7F1846DA
:104190002437BD4690BD00BF80B586B000AFF86043
:1041A000B9607A60FB681B68554A934204D0FB688B
:1041B0001B68544A934201D1534B00E0534B1846BD
:1041C000FFF764FD3861FB681B681846FFF71CFEAB
:1041D0000346002B40F08C80FB6893F85030012B95
:1041E00001D1022387E0FB68012283F850203B695C
:1041F000002B05D03B69052B02D03B69092B70D100
:10420000F86800F0FBFB0346FB75FB7D002B63D1D8
:10421000FB685A6D3E4B134043F48072FB685A654D
:10422000FB681B68374A934202D0FB681B6800E0BA
:10423000334BFA681268934202D03B69002B05D1D8
:10424000FB685B6D23F48012FB685A65FB685B6D4D
:1042500003F48053002B06D0FB689B6D23F006020D
:10426000FB689A6502E0FB6800229A65FB68DB6CDC
:10427000284ADA63FB68DB6C274A1A64FB68DB6C4C
:10428000264ADA64FB681B681C221A60FB6800225D
:1042900083F85020FB681B685A68FB681B6842F073
:1042A00010025A60FB681A68FB68DB6A1946104600
:1042B000FFF789FCFB68D86CFB681B684033194624
:1042C000BA687B6801F00AFD0346FB75FB681B6852
:1042D0001846FFF785FD0DE0FB68002283F85020AB
:1042E00008E00123FB75FB68002283F8502001E001
:1042F0000223FB75FB7D18461837BD4680BD00BF05
:1043000000200240002102400023024000630258C6
:10431000FEF0FFFFCF4B0008A74C0008C34C00087D
:1043200080B483B000AF786000BF0C37BD465DF845
:10433000047B704780B483B000AF786000BF0C3757
:10434000BD465DF8047B704780B483B000AF7860F1
:1043500000BF0C37BD465DF8047B704790B5A1B037
:1043600000AF78603960002387F87F300023BB609E
:104370003B68DB689D4A93427B6893F85030012B81
:1043800001D1022321E37B68012283F850207B685E
:104390001B681846FFF738FD0346002B40F00683E4
:1043A0003B681B68C3F31303002B08D13B681B68F1
:1043B0009B0E03F01F03012202FA03F316E03B6891
:1043C0001B687B667B6E93FAA3F33B663B6EBB6612
:1043D000BB6E002B01D1202303E0BB6EB3FA83F345
:1043E000DBB203F01F03012202FA03F37A681268BA
:1043F000D1697A6812680B43D3617B6818683B689F
:1044000059683B681B681A46FFF7B1FB7B681B685D
:104410001846FFF7F9FCB8677B681B681846FFF77A
:1044200006FD7867BB6F002B40F0B3807B6F002BDD
:1044300040F0AF807B6818683B6819683B689B68F0
:104440001A46FFF7D3FB6A4B1B6803F07043B3F1C6
:10445000805F0BD13B685A697B681B68DB689B08EF
:1044600003F007035B0002FA03F31DE07B681B689F
:10447000DB6803F01003002B0BD13B685A697B68A3
:104480001B68DB689B0803F007035B0002FA03F379
:104490000AE03B685A697B681B68DB689B0803F08D
:1044A00004035B0002FA03F33B673B681B69042BC0
:1044B00027D07B6818683B6819693B681A683B6FAE
:1044C000FFF7EEFA7B6818683B6819693B685B7E0A
:1044D000012B02D14FF0004300E000231A46FFF702
:1044E00018FB7B6818683B6819693B681B7E012BC9
:1044F00002D14FF4006300E000231A46FFF7F0FA00
:1045000047E07B681B681B6E03F0F8423B681B6842
:104510009B069A4207D17B681B681A6E7B681B68F2
:1045200022F000421A667B681B685B6E03F0F8425B
:104530003B681B689B069A4207D17B681B685A6ED2
:104540007B681B6822F000425A667B681B689B6E82
:1045500003F0F8423B681B689B069A4207D17B68D0
:104560001B689A6E7B681B6822F000429A667B6823
:104570001B68DB6E03F0F8423B681B689B069A429F
:1045800007D17B681B68DA6E7B681B6822F00042EB
:10459000DA667B681B681846FFF7FCFB0346002BB6
:1045A00040F00D827B6818683B6819683B68DB68DF
:1045B0001A46FFF747FB3B68DB680C4A934240F022
:1045C00033817B6818683B681B68C3F31303002BB7
:1045D00010D13B681B689B0E013303F01F03092BAE
:1045E00094BF01230023DBB21EE000BF0000FF47A1
:1045F0000010005C3B681B68BB65BB6D93FAA3F3BE
:104600007B657B6DFB65FB6D002B01D1202303E0F7
:10461000FB6DB3FA83F3DBB2013303F01F03092B05
:1046200094BF01230023DBB2002B79D03B681B68C9
:10463000C3F31303002B07D13B681B689B0E0133A8
:104640009B0603F0F84215E03B681B68FB64FB6CBB
:1046500093FAA3F3BB64BB6C3B653B6D002B01D1AC
:10466000202303E03B6DB3FA83F3DBB201339B06F7
:1046700003F0F8423B681B68C3F31303002B09D116
:104680003B681B689B0E013303F01F03012101FAF5
:1046900003F317E03B681B683B643B6C93FAA3F39E
:1046A000FB63FB6B7B647B6C002B01D1202303E05D
:1046B0007B6CB3FA83F3DBB2013303F01F030121F8
:1046C00001FA03F342EA03013B681B68C3F31303D7
:1046D000002B0AD13B681B689B0E013303F01F02BD
:1046E00013465B0013441B0518E03B681B687B63A3
:1046F0007B6B93FAA3F33B633B6BBB63BB6B002BFE
:1047000001D1202303E0BB6BB3FA83F3DBB20133A7
:1047100003F01F0213465B0013441B050B437EE0AE
:104720003B681B68C3F31303002B07D13B681B686E
:104730009B0E01339B0603F0F84215E03B681B68B3
:10474000BB62BB6A93FAA3F37B627B6AFB62FB6A80
:10475000002B01D1202303E0FB6AB3FA83F3DBB221
:1047600001339B0603F0F8423B681B68C3F3130355
:10477000002B09D13B681B689B0E013303F01F031C
:10478000012101FA03F317E03B681B68FB61FB6939
:1047900093FAA3F3BB61BB693B623B6A002B01D177
:1047A000202303E03B6AB3FA83F3DBB2013303F067
:1047B0001F03012101FA03F342EA03013B681B686E
:1047C000C3F31303002B0DD13B681B689B0E013311
:1047D00003F01F0213465B0013441E3B1B0543F00E
:1047E00000731BE03B681B683B613B6993FAA3F3D2
:1047F000FB60FB687B617B69002B01D1202303E018
:104800007B69B3FA83F3DBB2013303F01F02134673
:104810005B0013441E3B1B0543F000730B433A68D7
:1048200092681946FFF7E2F93B681B68002B80F29B
:10483000C6807B681B68674A934204D07B681B680C
:10484000654A934201D1654B00E0654B1846FFF77E
:1048500019F9F8667B681B685E4A934204D07B684E
:104860001B685D4A93420ED15A48FFF793FA0446FB
:104870005948FFF78FFA03462343002B0CBF01234F
:104880000023DBB208E05748FFF784FA0346002B09
:104890000CBF01230023DBB2002B7DD03B681B68DB
:1048A000514A934230D1FB6E03F40003002B2BD10D
:1048B0007B681B684B4A934240F081807B681B6891
:1048C000444A934204D07B681B68434A934201D117
:1048D000424A00E0424AFB6E43F400031946104688
:1048E000FFF7BDF8414B1B689B09414AA2FB03231C
:1048F0009B0901335B00BB6002E0BB68013BBB600E
:10490000BB68002BF9D15AE03B681B68394A9342D7
:104910001ED1FB6E03F08073002B19D17B681B68DE
:10492000304A93424BD17B681B682A4A934204D099
:104930007B681B68284A934201D1284A00E0284A34
:10494000FB6E43F0807319461046FFF788F836E097
:104950003B681B68284A934231D1FB6E03F4800305
:10496000002B2CD17B681B681E4A934227D17B68A1
:104970001B68184A934204D07B681B68164A93420E
:1049800001D1164A00E0164AFB6E43F48003194633
:104990001046FFF764F812E07B685B6D43F020027D
:1049A0007B685A65012387F87F3008E07B685B6D80
:1049B00043F020027B685A65012387F87F307B68CB
:1049C000002283F8502097F87F3018468437BD4680
:1049D00090BD00BF002002400021024000230240A1
:1049E0000063025800600258000084CB04000024D9
:1049F000632D3E05000052C70000B8CF80B584B0DB
:104A000000AF78607B681B681846FFF7C3F9034660
:104A1000002B6ED17B681B689A68384B1340002BC3
:104A20000DD07B685B6D43F010027B685A657B6834
:104A30009B6D43F001027B689A6501235AE07B6815
:104A40001B681846FFF77EF9FEF780FFF8607B6869
:104A50001B682B4A934204D07B681B68294A934207
:104A600001D1294B00E0294B1846FFF70FF9B86038
:104A70007B681B68234A934202D07B681B6800E076
:104A80001F4B7A68126893422CD0BB68002B30D140
:104A900028E07B681B681846FFF77CF90346002B6B
:104AA00004D17B681B681846FFF74CF9FEF74EFFF0
:104AB0000246FB68D31A022B14D97B681B681B685B
:104AC00003F00103012B0DD07B685B6D43F01002F6
:104AD0007B685A657B689B6D43F001027B689A6531
:104AE000012307E07B681B681B6803F00103012BAF
:104AF000CFD1002318461037BD4680BD3F0000804F
:104B000000200240002102400023024000630258BE
:104B100080B584B000AF78607B681B681846FFF7EB
:104B20004CF9F8607B681B681846FFF733F90346B9
:104B3000002B47D0FB68002B44D17B681B689B6827
:104B400003F00D03012B0CD17B681B681846FFF79F
:104B50000DF97B681B6803221A60FEF7F7FEB86048
:104B600029E07B685B6D43F010027B685A657B68C7
:104B70009B6D43F001027B689A65012323E0FEF7F9
:104B8000E5FE0246BB68D31A022B14D97B681B686A
:104B90009B6803F00103002B0DD07B685B6D43F035
:104BA00010027B685A657B689B6D43F001027B684D
:104BB0009A65012307E07B681B689B6803F001038B
:104BC000002BDCD1002318461037BD4680BD80B5D0
:104BD00084B000AF78607B689B6BFB60FB685B6DAB
:104BE00003F05003002B4BD1FB685B6D43F4007264
:104BF000FB685A65FB681B681B6803F00803002B01
:104C000021D0FB681B681846FEF79EFF0346002B69
:104C100032D0FB681B68DB6803F40053002B2BD1F8
:104C2000FB685B6D23F48072FB685A65FB685B6D03
:104C300003F48053002B1FD1FB685B6D43F001022E
:104C4000FB685A6518E0FB681B68DB6803F0030328
:104C5000002B11D1FB685B6D23F48072FB685A65F1
:104C6000FB685B6D03F48053002B05D1FB685B6D23
:104C700043F00102FB685A65F868FFF751FB0EE04C
:104C8000FB685B6D03F01003002B03D0F868FFF79F
:104C90005BFB04E0FB68DB6CDB6C7868984700BF6B
:104CA0001037BD4680BD80B584B000AF78607B68AA
:104CB0009B6BFB60F868FFF73DFB00BF1037BD46FC
:104CC00080BD80B584B000AF78607B689B6BFB6073
:104CD000FB685B6D43F04002FB685A65FB689B6DA7
:104CE00043F00402FB689A65F868FFF72DFB00BFEC
:104CF0001037BD4680BD000080B584B000AF78603D
:104D00007B681B68794A934204D07B681B68784AA9
:104D1000934209D1774B9B6803F44033002B14BFB7
:104D200001230023DBB208E0734B9B6803F440339C
:104D3000002B14BF01230023DBB2002B1CD006F094
:104D400085FBF8607B685B68B3F5403F10D0B3F536
:104D5000403F71D8B3F5803F02D0B3F5003F6BD12F
:104D60007B685B681B0CFA68B2FBF3F3FB6066E0E0
:104D7000FB689B08FB6062E04FF4002007F008FB33
:104D8000F8607B685B68B3F5301F51D0B3F5301F16
:104D900054D8B3F5201F47D0B3F5201F4ED8B3F534
:104DA000101F3DD0B3F5101F48D8B3F5001F33D006
:104DB000B3F5001F42D8B3F5E01F29D0B3F5E01FCB
:104DC0003CD8B3F5C01F1AD0B3F5C01F36D8B3F521
:104DD000A01F14D0B3F5A01F30D8B3F5801F0ED09C
:104DE000B3F5801F2AD8B3F5402F08D0B3F5402F74
:104DF00024D8B3F5802F02D0B3F5002F1ED17B68E5
:104E00005B689B0C5B00FA68B2FBF3F3FB6016E097
:104E1000FB681B09FB6012E0FB685B09FB600EE0AE
:104E2000FB689B09FB600AE0FB68DB09FB6006E0AE
:104E3000FB681B0AFB6002E000BF00E000BFFEF75A
:104E4000B5FD034641F20302934215D8FB682B4A95
:104E5000934208D97B681B689A687B681B6842F498
:104E600080729A603EE07B681B689A687B681B686A
:104E700022F480729A6035E0FB685B08FB60FB6897
:104E80001F4A934208D87B681B689A687B681B6836
:104E900022F440729A6025E0FB681A4A93420AD8CD
:104EA0007B681B689B6823F440727B681B6842F434
:104EB00080729A6016E0FB68134A93420AD87B68B6
:104EC0001B689B6823F440727B681B6842F4007285
:104ED0009A6007E07B681B689A687B681B6842F4ED
:104EE00040729A6000BF1037BD4680BD002002406E
:104EF000002102400023024000630258002D3101CE
:104F0000105E5F0020BCBE0040787D0180B485B09B
:104F100000AFF860B9607A60FB689A68094B13408B
:104F2000BA6802F480317A6802F080420A4313437F
:104F300043F00042FB689A6000BF1437BD465DF83D
:104F4000047B7047C0FFFE3F80B483B000AF786041
:104F50007B689B6803F00043B3F1004F01D101234C
:104F600000E0002318460C37BD465DF8047B70470F
:104F700080B586B000AFF860B9607A6000233B610D
:104F8000FB6893F85030012B01D102234CE0FB6801
:104F9000012283F85020F868FFF7BAFD0346FB753D
:104FA000FB7D002B35D1FB685A6D214B134043F03C
:104FB0000202FB685A65FB681B687A68B968184684
:104FC000FFF7A4FF14E03B6901333B613B69194AD9
:104FD00093420DD3FB685B6D23F0120343F0100284
:104FE000FB685A65FB68002283F8502001231BE010
:104FF000FB681B681846FFF7A7FF0346002BE2D1AA
:10500000FB685B6D23F0030343F00102FB685A6504
:1050100005E0FB685B6D43F01002FB685A65FB68B6
:10502000002283F85020FB7D18461837BD4680BD0E
:10503000FDEEFFFF00F8C32580B485B000AF7860B7
:105040007B6803F00703FB600B4BDB68BB60BA684F
:105050004FF6FF031340BB60FB681A02BB681A439C
:10506000064B1343BB60044ABB68D36000BF1437D0
:10507000BD465DF8047B704700ED00E00000FA05D6
:1050800080B400AF044BDB681B0A03F0070318462B
:10509000BD465DF8047B704700ED00E080B483B04E
:1050A00000AF0346FB80B7F90630002B0BDBFB8813
:1050B00003F01F020749B7F906305B09012000FA27
:1050C00002F241F8232000BF0C37BD465DF8047B97
:1050D000704700BF00E100E080B483B000AF03463A
:1050E0003960FB80B7F90630002B0ADB3B68DAB287
:1050F0000C49B7F906301201D2B20B4483F80023F1
:105100000AE03B68DAB20849FB8803F00F03043B6E
:105110001201D2B20B441A7600BF0C37BD465DF8BF
:10512000047B704700E100E000ED00E080B489B04E
:1051300000AFF860B9607A60FB6803F00703FB61B9
:10514000FB69C3F10703042B28BF0423BB61FB6980
:105150000433062B02D9FB69033B00E000237B618B
:105160004FF0FF32BB6902FA03F3DA43BB681A401F
:105170007B699A404FF0FF317B6901FA03F3D94311
:105180007B680B40134318462437BD465DF8047B0B
:105190007047000080B582B000AF78607B68013B4B
:1051A000B3F1807F01D301230FE00A4A7B68013B02
:1051B00053600F214FF0FF30FFF78EFF054B0022A9
:1051C0009A60044B07221A60002318460837BD4630
:1051D00080BD00BF10E000E080B582B000AF786015
:1051E0007868FFF729FF00BF0837BD4680BD80B54E
:1051F00086B000AF0346B9607A60FB81FFF740FFDD
:1052000078617A68B9687869FFF790FF0246B7F964
:105210000E3011461846FFF75FFF00BF1837BD4636
:1052200080BD80B582B000AF0346FB80B7F9063081
:105230001846FFF733FF00BF0837BD4680BD80B575
:1052400082B000AF78607868FFF7A4FF0346184685
:105250000837BD4680BD000080B483B000AF7860E1
:105260007B68042B06D1094B1B68084A43F00403F2
:10527000136005E0054B1B68044A23F00403136028
:1052800000BF0C37BD465DF8047B704710E000E0BE
:1052900080B582B000AF78607B68002B01D101231C
:1052A00014E07B681B79DBB2002B05D17B68002200
:1052B0005A717868FBF7C6FE7B6802221A717B6818
:1052C00000221A617B6801221A71002318460837F0
:1052D000BD4680BD80B483B000AF786039607B6824
:1052E0005B79012B01D1022340E07B6801225A71D6
:1052F0007B6802221A717B681B6819683B6803F09F
:10530000100301229A407B681B680A431A603B68BD
:10531000002B0FD17B681B681B6803F03E03022B38
:105320001DD17B681B685A687B681B6842F00102CC
:105330005A6014E07B681B681B6803F478123B68B2
:1053400003F01003022101FA03F39A4207D17B68AC
:105350001B685A687B681B6842F002025A607B68CF
:1053600001221A717B6800225A71002318460C37FB
:10537000BD465DF8047B704780B487B000AFF8602D
:10538000B9607A603B6000237B61FB681B687B61CE
:10539000BB68002B05D17A697B68134408337B61B5
:1053A00004E07A697B68134414337B617B691A4695
:1053B0003B681360002318461C37BD465DF8047B2C
:1053C0007047000080B588B000AFF860B9607A60BF
:1053D000FB685B79012B01D102231DE1FB680122EF
:1053E0005A71FB6802221A71BB681B68042B74D1C6
:1053F000FEF7ACFAB8617B68002B34D111E0FEF700
:10540000A5FA0246BB69D31A012B0AD9FB681B69AE
:1054100043F00802FB681A61FB6803221A71032338
:10542000FAE0FB681B685A6B7D4B1340002BE6D1FA
:105430000120FEF797FAFB681B68BA6892691A6444
:105440001EE0FEF783FA0246BB69D31A012B0AD984
:10545000FB681B6943F00802FB681A61FB680322C2
:105460001A710323D8E0FB681B685B6B002BE8DB39
:105470000120FEF777FAFB681B68BA6892695A64E4
:10548000FB681B689A6C7B6803F0100340F2FF31E5
:1054900001FA03F3DB4302EA0301BB68DA697B68C4
:1054A00003F010039A40FB681B680A439A64FB6888
:1054B0001B68DA6C7B6803F01003FF2101FA03F329
:1054C000DB4302EA0301BB681A6A7B6803F010033E
:1054D0009A40FB681B680A43DA64BB681B69012BAE
:1054E0001DD1FB681B689B6B7B617B6803F010031D
:1054F0001F2202FA03F3DB437A6913407B61BB6826
:105500005B693B617B6803F010033A6902FA03F3BD
:105510007A6913437B61FB681B687A699A63FB684D
:105520001B68DB6B7B617B6803F01003072202FAC8
:1055300003F3DB437A6913407B61BB68DB68012BB3
:1055400002D10023FB610FE0BB68DB68022B02D1B4
:105550000123FB6108E0BB689B68002B02D101239B
:10556000FB6101E00023FB61BB681A68BB689B68B4
:105570001343FA6913433B617B6803F010033A69F4
:1055800002FA03F37A6913437B61FB681B687A694B
:10559000DA63FB681B6819687B6803F010034FF43B
:1055A000804202FA03F3DA43FB681B680A401A6080
:1055B000FB681B681B687B617B6803F0100340F687
:1055C000FE7202FA03F3DB437A6913407B61BB6826
:1055D0005B683B617B6803F010033A6902FA03F3EE
:1055E0007A6913437B61FB681B687A691A60FB6800
:1055F0001B6819687B6803F01003C02202FA03F3EA
:10560000DA43FB681B680A401A60FB6801221A71C2
:10561000FB6800225A71002318462037BD4680BD22
:105620000080002080B586B000AF7860FEF78EF96C
:1056300038617B68002B01D1012316E37B681B686E
:10564000664A93424AD07B681B68654A934245D0BC
:105650007B681B68634A934240D07B681B68624A40
:1056600093423BD07B681B68604A934236D07B688C
:105670001B685F4A934231D07B681B685D4A934246
:105680002CD07B681B685C4A934227D07B681B68E0
:105690005A4A934222D07B681B68594A93421DD0D4
:1056A0007B681B68574A934218D07B681B68564A30
:1056B000934213D07B681B68544A93420ED07B6898
:1056C0001B68534A934209D07B681B68514A934236
:1056D00004D07B681B68504A934201D1012300E04B
:1056E0000023002B00F03B817B68022283F83520E9
:1056F0007B68002283F834207B681B68374A93421A
:105700004AD07B681B68364A934245D07B681B6849
:10571000344A934240D07B681B68334A93423BD063
:105720007B681B68314A934236D07B681B68304ADD
:10573000934231D07B681B682E4A93422CD07B6801
:105740001B682D4A934227D07B681B682B4A9342E3
:1057500022D07B681B682A4A93421DD07B681B6855
:10576000284A934218D07B681B68274A934213D07B
:105770007B681B68254A93420ED07B681B68244ACD
:10578000934209D07B681B68224A934204D07B680D
:105790001B68214A934208D17B681B681A687B68A2
:1057A0001B6822F001021A6007E07B681B681A6818
:1057B0007B681B6822F001021A602FE0FEF7C6F832
:1057C00002463B69D31A052B28D97B6820225A65EB
:1057D0007B68032283F83520012346E21000024053
:1057E0002800024040000240580002407000024081
:1057F00088000240A0000240B800024010040240AD
:105800002804024040040240580402407004024050
:1058100088040240A0040240B80402407B681B6870
:105820001B6803F00103002BC8D17B681B681B6851
:105830007B617A69834B13407B617B689A687B68E4
:10584000DB681A437B681B691A437B685B691A43F0
:105850007B689B691A437B68DB691A437B681B6A18
:1058600013437A6913437B617B685B6A042B07D11E
:105870007B68DA6A7B681B6B13437A6913437B612D
:10588000714B1A68714B1340B3F1005F28D37B68EA
:105890005B68282B03D97B685B682E2B17D97B6844
:1058A0005B683E2B03D97B685B68422B0FD97B6812
:1058B0005B68462B03D97B685B68482B07D97B68FC
:1058C0005B684E2B05D97B685B68522B01D801239E
:1058D00000E00023002B03D07B6943F480137B613D
:1058E0007B681B687A691A607B681B685B697B61EF
:1058F0007B6923F007037B617B685B6A7A691343EA
:105900007B617B685B6A042B17D17B689B6A7A6931
:1059100013437B617B68DB6A002B0ED0786802F052
:1059200033FB0346002B08D07B6840225A657B6816
:10593000012283F83520012397E17B681B687A698F
:105940005A61786802F06EFA0346BB607B68DB6DD3
:1059500003F01F033F229A40BB689A60CDE07B684A
:105960001B683B4A934222D07B681B68394A9342AA
:105970001DD07B681B68384A934218D07B681B682F
:10598000364A934213D07B681B68354A93420ED047
:105990007B681B68334A934209D07B681B68324A94
:1059A000934204D07B681B68304A934201D10123A3
:1059B00000E00023002B00F097807B681B68244ADE
:1059C000934221D07B681B68224A93421CD07B689B
:1059D0001B68214A934217D07B681B681F4A934279
:1059E00012D07B681B681E4A93420DD07B681B68EF
:1059F0001C4A934208D07B681B681B4A934203D021
:105A00007B681B68194A934200BF7B68022283F8B7
:105A100035207B68002283F834207B681B681B6874
:105A20007B617A69124B13407B617B689B68402BDA
:105A300020D07B689B68802B02D14FF480431AE012
:105A4000002318E03F8010FE0010005C0000FFFF04
:105A5000085402581C5402583054025844540258F6
:105A6000585402586C5402588054025894540258A6
:105A70000F00FEFF10237A68D268D2081A437B68B1
:105A80001B69DB081A437B685B69DB081A437B6888
:105A90009B69DB081A437B68DB69DB081A437B6878
:105AA0001B6A1B0913437A6913437B617B681B687C
:105AB0007A691A607B681B681A466E4B13446E4AFB
:105AC000A2FB03231B099A007B68DA65786802F061
:105AD000A9F90346FB607B68DB6D03F01F0301221D
