:020000040800F2
:10000000D0660124810300085198000883900008FD
:100010004D980008610C000855E000080000000041
:1000200000000000000000000000000095A400088F
:100030003514000800000000039E0008A9A4000871
:100040009B0300089B0300089B0300089B03000818
:100050009B0300089B0300089B0300089B03000808
:100060009B0300089B0300089B030008990E0008EF
:10007000A90E00089B0300089B0300089B030008CF
:100080009B0300089B0300089B0300089B030008D8
:100090009B0300089B0300089B0300089B030008C8
:1000A0009B0300089B0300089B0300089B030008B8
:1000B0009B03000899A6000815A700089B030008E9
:1000C0009B0300089B0300089B0300089B03000898
:1000D0009B030008EDBA00089B0300089B0300087F
:1000E0009B0300089B030008000000009B0300081E
:1000F0009B0300089B0300089B0300089B03000868
:100100009B0300089B03000825A700089B03000829
:100110009B0300089B0300089B0300089B03000847
:100120009B0300089B0300089B0300089B03000837
:100130009B0300089B0300089B0300089B03000827
:1001400000000000000000000000000000000000AF
:100150009B0300089B0300089B0300089B03000807
:100160009B0300089B0300089B0300089B030008F7
:100170009B0300089B0300089B0300089B030008E7
:100180009B0300089B0300089B0300089B030008D7
:100190009B0300089B0300089B0300089B030008C7
:1001A0009B0300089B0300089B0300089B030008B7
:1001B0009B0300089B0300089B0300089B030008A7
:1001C0009B0300089B0300089B0300089B03000897
:1001D0009B0300085D9B0008B90E00089B03000804
:1001E0009B0300089B0300089B0300089B03000877
:1001F0009B0300089B0300089B0300089B03000867
:100200009B0300089B0300089B0300089B03000856
:100210009B0300089B0300089B0300089B03000846
:100220009B0300089B0300089B03000800000000DC
:100230009B0300089B030008000000009B030008CC
:100240009B0300089B0300089B0300089B03000816
:100250009B0300089B0300089B0300089B03000806
:100260009B0300089B0300089B0300089B030008F6
:100270009B0300089B0300089B030008000000008C
:100280009B0300089B0300089B030008000000007C
:10029000000000009B03000800F002F800F061F885
:1002A0000AA090E8000C82448344AAF10107DA45D1
:1002B00001D100F056F8AFF2090EBAE80F0013F0C2
:1002C000010F18BFFB1A43F00103184794EC00001C
:1002D000B4EC00000A444FF0000C10F8013B13F09E
:1002E000070408BF10F8014B1D1108BF10F8015B8F
:1002F000641E05D010F8016B641E01F8016BF9D182
:1003000013F0080F1EBF10F8014BAD1C0C1B09D1D8
:100310006D1E58BF01F801CBFAD505E014F8016B4A
:1003200001F8016B6D1EF9D59142D6D370470000DC
:100330000023002400250026103A28BF78C1FBD8EE
:10034000520728BF30C148BF0B607047642900F0D6
:10035000F780002070471FB50EF0E5FC1FBD10B5FB
:1003600010BD00F082FA1146FFF7F5FF0EF00CF910
:1003700000F0A0FA03B4FFF7F2FF03BC00F0A8FA04
:100380000948804709480047FEE7FEE7FEE7FEE729
:10039000FEE7FEE7FEE7FEE7FEE7FEE70448054965
:1003A000054A064B704700009DA500089902000809
:1003B000D0060124D0660124D0260124D0260124B1
:1003C00053EA020C00F069802DE9F04B4FF0000673
:1003D000002B1FBFB3FA83F503FA05F424FA05F6E0
:1003E0005E4012BF1643B2FA82F502FA05F4C5F177
:1003F00020051EBF22FA05FC44EA0C04203556EA0B
:10040000044C4FEA144418BF641C4FF000084FF02E
:100410000009904271EB030C39D3002919BFB1FADE
:1004200081F701FA07F6B0FA80F700FA07F6C7F18C
:1004300020071EBF20FA07FC46EA0C062037B6FB51
:10044000F4FCA7EB0507103F07F01F0BCBF12006CC
:100450000CFA0BFB2CFA06F644BFB3460026202FFD
:10046000A4BF5E464FF0000B5BEA060C08BF4FF0DE
:10047000010B19EB0B09ABFB027C48EB0608C01B18
:1004800006FB02CC0BFB03CC71EB0C01C1E70B4666
:10049000024641464846BDE8F08B13B54FF00000D8
:1004A0004FF00001AFF30080BDE81C407047000032
:1004B0000FB41CB5074B06AA7B446946009005980B
:1004C00000F0BBF90020694600F0CAF91CBC5DF8D9
:1004D00014FB0000A50300002DE9F0410E46044680
:1004E000002020622046E168884730B3252805D0E7
:1004F000D4E901219047206A401CF2E7E1682046D8
:1005000000278847050018D0A5F14100192802D816
:1005100020354FF400673246294620462760FFF712
:1005200015FF40B1012804D0F61D26F00706083655
:10053000D8E7361DD6E72846DAE7206ABDE8F0811D
:100540002DE9F0410646002410687529314616A5AC
:1005500010D0AFF30080002802DA404213A507E074
:1005600031688A0701D512A502E0490704D511A513
:10057000012401E0AFF3008000210A2206F12407E4
:1005800009E0B0FBF2FCB0FBF2F302FB1C003030E0
:1005900078541846491C0028F3D123462A46304691
:1005A000BDE8F04100F0EAB8000000002D000000B6
:1005B0002B0000002000000010B5431C02E010F8E2
:1005C000011B71B18107FAD14FF0013202C88C1AB8
:1005D0008C4314EAC211F9D0C01A0A0603D0C01E17
:1005E00010BDC01A10BD0A0401D0801E10BD090242
:1005F000FCD0401E10BD032A40F2308010F0030CE6
:1006000000F0158011F8013BBCF1020F624498BF65
:1006100011F801CB00F8013B38BF11F8013BA2F102
:10062000040298BF00F801CB38BF00F8013B11F07D
:10063000030300F02580083AC0F0088051F8043B1D
:10064000083A51F804CBA0E80810F5E7121D5CBF8A
:1006500051F8043B40F8043BAFF30080D20724BFBD
:1006600011F8013B11F801CB48BF11F8012B24BF51
:1006700000F8013B00F801CB48BF00F8012B7047A0
:1006800010B5203AC0F00B80B1E81850203AA0E82D
:100690001850B1E81850A0E81850BFF4F5AF5FEA61
:1006A000027C24BFB1E81850A0E8185044BF18C914
:1006B00018C0BDE810405FEA827C24BF51F8043BBB
:1006C00040F8043B08BF7047D20728BF31F8023B0F
:1006D00048BF11F8012B28BF20F8023B48BF00F8A3
:1006E000012B70474FF000020429C0F0128010F077
:1006F000030C00F01B80CCF1040CBCF1020F18BFFE
:1007000000F8012BA8BF20F8022BA1EB0C0100F090
:100710000DB85FEAC17C24BF00F8012B00F8012B63
:1007200048BF00F8012B70474FF0000200B5134698
:1007300094469646203922BFA0E80C50A0E80C5001
:10074000B1F12001BFF4F7AF090728BFA0E80C50B2
:1007500048BF0CC05DF804EB890028BF40F8042BAB
:1007600008BF704748BF20F8022B11F0804F18BF18
:1007700000F8012B70477047704770472DE9F0472C
:100780000D4699469246044600F124080168880601
:1007900004D5E06921F01001216000E00120A842A9
:1007A00001DD471B00E00027A1697A1902EB09006F
:1007B000081AA0612078C00602D42046AFF300805A
:1007C000002608E0D4E901211AF806009047206AC3
:1007D000401C761C20624E45F4DB2078C0060AD50A
:1007E0002046AFF3008006E0D4E901213020904795
:1007F000206A401C2062381EA7F10107F4DC07E0E4
:10080000D4E9012118F805009047206A401C2062B5
:10081000281EA5F10105F3DC2046AFF30080207807
:10082000000602D50220BDE8F0870120FBE70000AA
:1008300001694A1C02610878704700B58FB0CDE9A4
:1008400001310021059105497944CDE90310114694
:100850006846FFF741FE0FB000BD0000E5FFFFFF57
:100860000A6802F8010B0A607047754600F02CF820
:10087000AE4605006946534620F00700854618B08D
:1008800020B5FFF78BFDBDE820404FF000064FF08C
:1008900000074FF000084FF0000B21F00701AC46B5
:1008A000ACE8C009ACE8C009ACE8C009ACE8C009D4
:1008B0008D46704710B50446AFF300802046BDE872
:1008C0001040FFF757BD0000004870476C06012438
:1008D00001491820ABBEFEE7260002007047000069
:1008E00070B504464E492068884203D04D492068BF
:1008F000884208D14C48006800F4403008B101201B
:1009000009E0002007E04948006800F4403008B1E1
:10091000012000E00020B8B106F008FE054660683E
:10092000B0F5803F06D0B0F5003F04D0B0F5403FB1
:1009300008D105E000BF6068000CB5FBF0F502E0EF
:10094000AD0800E000BF2AE04FF4002005F002FBF4
:1009500005466068C0F31101F9B980140C281CD257
:10096000DFE800F01B060708090A0B111315171919
:1009700000BF00BF00BF00BF00BF6068800C400028
:10098000B5FBF0F50AE02D0908E06D0906E0AD09B8
:1009900004E0ED0902E02D0A00E000BF00BF03F013
:1009A00035FC41F20301884210D82148854206D91E
:1009B0002068806840F48070216888602FE020689B
:1009C000806820F480702168886028E06D081948EC
:1009D000854206D82068806820F4407021688860CD
:1009E0001DE01548854208D82068806820F44070D2
:1009F00040F480702168886011E01048854208D872
:100A00002068806820F4407040F40070216888609D
:100A100005E02068806840F440702168886070BDFF
:100A200000200240002102400823024008630258CF
:100A3000002D3101105E5F0020BCBE0040787D01BA
:100A400070B50546AC6B606D00F0500098BB606DF2
:100A500040F4007060652068006800F00800A8B1EC
:100A6000206808F05FFB10B32068C06800F40050F5
:100A7000E8B9606D20F480706065606D00F48050AE
:100A8000A8B9606D40F00100606510E02068C068A2
:100A900000F0030058B9606D20F480706065606DEF
:100AA00000F4805018B9606D40F001006065204688
:100AB00000F0DCFF0CE0FFE7606D00F0100018B103
:100AC000204600F0D5FF03E0E06CC16C2846884763
:100AD00070BD70B50546AC6B606D40F04000606560
:100AE000A06D40F00400A065204600F0C1FF70BD7D
:100AF00070B50446A56B284600F0B9FF70BD000034
:100B000070B50446206808F0F9FA0646206808F037
:100B1000FAFA98B396BB2068806800F00D000128AF
:100B20000AD1206881681A4A1140891C816000BF7F
:100B300003202168086009E0606D40F010006065E6
:100B4000A06D40F00100A065012070BD03F064FBC2
:100B5000054614E003F060FB401B02280FD9206813
:100B6000806800F0010050B1606D40F010006065D9
:100B7000A06D40F00100A0650120E6E705E02068D7
:100B8000806800F001000028E4D10020DDE70000CB
:100B9000C0FFFF7F70B50446206808F0B4FA002853
:100BA00051D1206880682949084048B1606D40F003
:100BB00010006065A06D40F00100A065012070BDCF
:100BC000206808F089FA03F027FB0546204A2168CF
:100BD000914203D01F4A2168914201D11E4900E091
:100BE0001E49084608F080FA06461A4920688842DD
:100BF00001D1174800E020682168884200D00EBB70
:100C00001AE0206808F07FFA10B9206808F064FA4A
:100C100003F002FB401B02280ED92068006800F098
:100C2000010048B9606D40F010006065A06D40F0B3
:100C30000100A0650120C2E72068006800F0010003
:100C40000028DED000BF0020B9E700003F00008090
:100C500000200240002102400023024000630258AD
:100C600000BFFEE70346042B15D007DC7BB1012B48
:100C70000ED0022B0DD0032B12D10BE0202B0BD06A
:100C8000212B0AD0222B09D0232B09D107E008E021
:100C900007E006E005E004E003E002E001E000E038
:100CA00000BF00BF002070470020704710B58123AF
:100CB00000220B490B480BF0F8F8822300220A4966
:100CC00008480BF0F2F80122084906480BF0DDF85D
:100CD0000222074903480BF0D8F8002010BD00009D
:100CE0002CF000245CDB00242CF800242CE00024F1
:100CF0002CE8002470B504460E461546012C0FD191
:100D000015480DF062FF2968884205D9314612481E
:100D10002A680DF035FF14E00F480DF067FF10E072
:100D2000022C0ED10D480DF050FF2968884205D9DC
:100D300031460A482A680DF023FF02E007480DF00B
:100D400055FF2246314606480BF09FF821460448DD
:100D50000BF06BF8002070BDD0290024D85100247E
:100D60005CDB002430B503460C460021022A02D188
:100D70000220024D287048B230BD0000300000242F
:100D80002DE9F04104460D46164600270D48D0F8DF
:100D9000BC8204F00F00401E08F5097151F82000D4
:100DA00010B10120BDE8F0812346324629460548AE
:100DB0000BF07BF8214603480BF01CF90746384638
:100DC000F0E700005CDB002410B52DED028B04463B
:100DD00000EE104AB8EE400BB0EE408B9FED0D0BCD
:100DE00088EE001BB0EE418B9FED0C0B28EE000B44
:100DF0009FED0C1B80EE012BB0EE428BBCEEC80BBE
:100E000010EE103A00221146084801F031FABDEC0C
:100E1000028B10BD0000000000408F400000000069
:100E20000000B0406666666666660A40F4C000244C
:100E300010B52DED028B044600EE104AB8EE400BC3
:100E4000B0EE408B9FED0D0B88EE001BB0EE418B9A
:100E50009FED0C0B28EE000B9FED0C1B80EE012B81
:100E6000B0EE428BBCEEC80B10EE103A00221021FF
:100E7000084801F0FDF9BDEC028B10BD0000000038
:100E800000408F40000000000000B04066666666CB
:100E900066660A40F4C0002410B5024801F0A8FEBE
:100EA00010BD000004C0002410B5024801F0A0FEEF
:100EB00010BD00007CC0002410B5024801F02AFAE1
:100EC00010BD00007CC000240146374A08689042EB
:100ED00049D0354A18320868904244D0324A3032FC
:100EE000086890423FD0304A4832086890423AD071
:100EF0002D4A60320868904235D02B4A7832086813
:100F0000904230D0284A9032086890422BD0264A2E
:100F1000A8320868904226D0244A0868904222D01D
:100F2000224A1832086890421DD0204A30320868A0
:100F3000904218D01D4A48320868904213D01B4A8C
:100F40006032086890420ED0184A783208689042A1
:100F500009D0164A90320868904204D0134AA83249
:100F60000868904201D1012000E00020B0B10A7869
:100F7000103A1823B2FBF3F000F007020C4B9A5C16
:100F8000CA65032805D90A686FF30902121D8A652C
:100F900003E00A686FF309028A6503E0086820F03D
:100FA000FF008865886D7047100002401004024001
:100FB00030EF000810B502682B4C0368A34222D022
:100FC000294C14340368A3421DD0274C28340368ED
:100FD000A34218D0244C3C340368A34213D0224CC3
:100FE00050340368A3420ED01F4C64340368A342FC
:100FF00009D01D4C78340368A34204D01A4C8C34B9
:101000000368A34201D1012300E000238BB10378E0
:10101000083B1424B3FBF4F1144B03EB8103036688
:10102000124B8033436601F01F040123A340836603
:1010300018E00378103B1824B3FBF4F10C4B9A42F0
:1010400004D80B4BA83B9A4200D30831094B03EB61
:1010500081030366074B8033436601F01F040123BD
:10106000A340836610BD000008540258005802587F
:10107000B8040240000802400179A9B3082940D809
:10108000204B02689A4222D01E4B143302689A42C7
:101090001DD01C4B283302689A4218D0194B3C33A0
:1010A00002689A4213D0174B503302689A420ED00E
:1010B000144B643302689A4209D0124B78330268A9
:1010C0009A4204D00F4B8C3302689A4201D101221C
:1010D00000E000224AB14A1E0B4B03EB8202C266BB
:1010E000094A4032026708E00BE04A1E074B03EB57
:1010F0008202C266054A403202674A1E01239340BB
:1011000043677047085402580059025800090240CA
:10111000014600208A69D2B98A6A32B1012A0DD00B
:10112000022A03D0032A10D10EE000BFCA6A02F0DF
:101130008072B2F1807F00D1012007E0CA6AB2F16B
:10114000C07F00D1012001E000E000BF36E08A69E5
:10115000B2F5005F1BD18A6A32B1012A07D0022A98
:1011600003D0032A11D10AE000BF01200EE0CA6AB1
:1011700002F08072B2F1807F00D1012006E0CA6ADD
:10118000B2F1C07F00D1012000E000BF16E08A6A02
:1011900032B1012A05D0022A04D0032A0CD103E07F
:1011A00000BF00BF012008E0CA6A02F08072B2F1FD
:1011B000807F00D1012000E000BF00BF7047000029
:1011C000F0B5856D846D984F0668BE4270D0964F1D
:1011D00018370668BE426BD0934F30370668BE4260
:1011E00066D0914F48370668BE4261D08E4F603757
:1011F0000668BE425CD08C4F78370668BE4257D036
:10120000894F90370668BE4252D0874FA83706688C
:10121000BE424DD0854F0668BE4249D0834F183735
:101220000668BE4244D0814F30370668BE423FD088
:101230007E4F48370668BE423AD07C4F603706681A
:10124000BE4235D0794F78370668BE4230D0774FEE
:1012500090370668BE422BD0744FA8370668BE424E
:1012600026D0734F0668BE4222D0714F14370668ED
:10127000BE421DD06E4F28370668BE4218D06C4F54
:101280003C370668BE4213D0694F50370668BE42ED
:101290000ED0674F64370668BE4209D0644F783776
:1012A0000668BE4204D0624F8C370668BE4201D148
:1012B000012600E000263EB1D0E919767E60C66EB8
:1012C00016B1D0E91C767E60574F0668BE4249D001
:1012D000554F18370668BE4244D0534F3037066822
:1012E000BE423FD0504F48370668BE423AD04E4FBC
:1012F00060370668BE4235D04B4F78370668BE422D
:1013000030D0494F90370668BE422BD0464FA837A1
:101310000668BE4226D0454F0668BE4222D0434FE3
:1013200018370668BE421DD0404F30370668BE42AF
:1013300018D03E4F48370668BE4213D03B4F603747
:101340000668BE420ED0394F78370668BE4209D0D3
:10135000364F90370668BE4204D0344FA83706682F
:10136000BE4201D1012600E00026DEB190F85C60AB
:1013700006F01F073F26BE40AE600668366826F4BA
:10138000802607683E60066873608668402E04D138
:101390000668B2600668F16044E00668B1600668FD
:1013A000F2603FE0224F0668BE4222D0204F143741
:1013B0000668BE421DD01E4F28370668BE4218D0B0
:1013C0001B4F3C370668BE4213D0194F5037066892
:1013D000BE420ED0164F64370668BE4209D0144F85
:1013E00078370668BE4204D0114F8C370668BE427B
:1013F00001D1012600E00026A6B190F85C6006F05D
:101400001F070126BE406660066873608668402E2E
:1014100004D10668B2600668F16003E00668B16056
:101420000668F260F0BD00001000024010040240A7
:1014300008540258704772B600BFFEE770B50A48FC
:101440000468001D0568001D0668344454B1082274
:101450000649204607F020FE0422044910312846A0
:1014600007F01AFE70BD000000E8F11F860000249E
:10147000F8B504460D4616460020009000BF94F8CB
:101480005000012801D10220F8BD012084F850004D
:1014900000BF2046FFF734FB0746A7BB606D20F472
:1014A000885040F002006065206805F4803141F00A
:1014B000004106F0804211438268194B1A401143E3
:1014C000816000BF13E00098401C0090154900980F
:1014D00088420CD3606D20F0020040F0100060657F
:1014E00000BF002084F8500000BF0120CCE7206836
:1014F0008168C90F0029E6D1606D20F0020040F03C
:101500000100606504E0FFE7606D40F01000606579
:1015100000BF002084F8500000BF3846B4E7000048
:10152000C0FFFE3F00F8C3252DE9F84F04460D46E5
:101530004FF0000A0020009094F83800012800D1F4
:1015400000E000BFF849E868884200D00EE0F749A3
:101550002068884200D100BFF5492068884200D148
:1015600000BFF4492068884200D100BF00BF94F852
:101570005000012802D10220BDE8F88F012084F834
:10158000500000BF206807F0C8FD00287ED1206809
:10159000C1692868C0F3130018B92868C0F38460D3
:1015A00004E0286890FAA0F0B0FA80F000F01F0282
:1015B0000120904001432068C1612168D5E90020E5
:1015C00001F1300CC0F3012B0CEB8B03D3F800C0FE
:1015D00000F01F0E4FF01F0B0BFA0EFB2CEA0B0C4A
:1015E00000F01F0BC2F3846E0EFA0BFE4CEA0E0CD9
:1015F000C3F800C000BF206807F08FFD8146206857
:1016000007F077FD8046B9F1000F6FD1B8F1000FF8
:10161000FBD1AA682968206807F096FDC6480068D3
:1016200000F07040B0F1805F07D168692168C96837
:10163000C1F382014900884014E02068C06800F0CE
:10164000100038B968692168C968C1F3820149008E
:10165000884007E068692168C96801F010018908BD
:101660004900884007462869042840D020682A6835
:10167000296900F1600C0CEB8103D3F800C00CF079
:10168000004C02F0F84B4BEA070B00E0CCE14CEACF
:101690000B0CC3F800C000BF20686A7E2969012ACC
:1016A00001D1D20700E00022134600F1600C0CEBE0
:1016B0008102D2F800C02CF0004C4CEA030CC2F8B6
:1016C00000C000BF20682B7E2969012B01D1DB02FD
:1016D00000E000231A46036923F4F04301F01F0CD5
:1016E00002FA0CFC43EA0C03036100BF37E02068F8
:1016F000006E00F0F8402978B0EB816F05D12068CA
:10170000006E20F00040216808662068406E00F0FE
:10171000F8402978B0EB816F05D12068406E20F049
:101720000040216848662068806E00F0F840297803
:10173000B0EB816F05D12068806E20F000402168F9
:1017400088662068C06E00F0F8402978B0EB816FA1
:1017500005D12068C06E20F000402168C86620686E
:1017600007F0D1FC002872D12068EA682968D0F817
:10177000C030C1F3130C23EA0C0302F0180BDFF89E
:10178000BCC12CFA0BFC0CEA010C43EA0C03C0F8B8
:10179000C03000BF6449E86888427DD12B68C3F33C
:1017A00013031BB92B68C3F3846304E02B6893FA1B
:1017B000A3F3B3FA83F35B1C03F01F03092B3ED89A
:1017C0002B68C3F313031BB92B68C3F3846304E0D2
:1017D0002B6893FAA3F3B3FA83F35B1C03F01F03A4
:1017E0004FF0010C0CFA03FC2B68C3F313031BB975
:1017F0002B68C3F3846304E02B6893FAA3F3B3FA72
:1018000083F35B1C03F01F034CEA836C2B68C3F368
:1018100013031BB92B68C3F3846304E02B6893FAAA
:10182000A3F3B3FA83F35B1C03F01F0303EB43033F
:101830004FF0000B4BEA03534CEA030341E02B68E3
:10184000C3F3130323B92B68C3F3846305E0A9E052
:101850002B6893FAA3F3B3FA83F35B1C03F01F0323
:101860004FF0010C0CFA03FC2B68C3F313031BB9F4
:101870002B68C3F3846304E02B6893FAA3F3B3FAF1
:1018800083F35B1C03F01F034CEA836C2B68C3F3E8
:1018900013032BB92B6800E018E0C3F3846304E062
:1018A0002B6893FAA3F3B3FA83F35B1C03F01F03D3
:1018B0000A3B03EB43034FF0007B4BEA03534CEA34
:1018C00003031946AA68206807F03EFC286800F068
:1018D0000040002866D0154A2168914203D0144A7E
:1018E0002168914201D1164900E0164908468168F5
:1018F00001F0E07600BF0D492068884203D00C4912
:101900002068884201D10E4800E00E480C49884208
:101910001AD1064807F0F7FB8346054807F0F3FBAA
:101920004BEA000013E000000000FF4700200240E7
:1019300000210240006002580010005CFFFF0F0011
:1019400000230240006302583E4807F0DCFBE8BB7E
:101950003D492868884226D106F4000018BB394961
:101960002068884266D1394B22689A4203D0384BAE
:1019700022689A4201D1374A00E0374A104646F4BD
:10198000000107F0F5FB354800683549B0FBF1F080
:10199000401C4000009002E00098401E009000981B
:1019A0000028F9D146E02F492868884219D106F06D
:1019B0008070B0B92349206888423BD1234B22680C
:1019C0009A4205D0224B22689A4200E025E001D1DC
:1019D000204A00E0204A104646F0807107F0C8FB1C
:1019E00028E021492868884224D106F4800008BBF9
:1019F0001449206888421DD1144B22689A4203D0B2
:101A0000134B22689A4201D1124A00E0124A104652
:101A100046F4800107F0ACFB0CE0606D40F0200064
:101A200060654FF0010A05E0606D40F020006065E0
:101A30004FF0010A00BF002084F8500000BF50465C
:101A40009AE5000000600258000084CB00200240AC
:101A5000002102400023024000630258C00000241D
:101A6000400D0300000052C70000B8CF7047704718
:101A7000704700002DE9F84F04464FF000090020A0
:101A8000009014B90120BDE8F88FE06818B1207FFC
:101A9000012800D100BF606D30B9204600F030F958
:101AA0000020A06584F8500020688168C1F340716F
:101AB00031B120688168874A1140816000BF00BF52
:101AC000206807F025FBA8B920688168824A114088
:101AD00041F08051816000BF804800688049B0FBC0
:101AE000F1F0401C009002E00098401E0090009829
:101AF0000028F9D1206807F00BFB48B9606D40F071
:101B000010006065A06D40F00100A0654FF0010974
:101B1000206807F002FB0646606D00F01000002808
:101B20007ED1002EFCD1606D20F4807040F0020068
:101B30006065206807F0E7FA78BB6A492068884248
:101B400003D069492068884201D1684800E06848AC
:101B50006649884209D1634807F0D5FA824662484F
:101B600007F0D1FA4AEA000002E0624807F0CBFA37
:101B700098B95C4B22689A4203D05B4B22689A4228
:101B800001D15A4A00E05A4A10466168826822F43C
:101B90007C120A43826000BF00BF02F037FB41F2B3
:101BA000030188420ED9A06810280BD1607D216BFB
:101BB00041EA4030A168084340F00C01207F41EA2F
:101BC000004508E0607D216B41EA4030A168084390
:101BD000217F40EA0145207F012803D1208C401E4F
:101BE00045EA4045606A28B1A08C00F47870A16A8B
:101BF000084305432068C0683F49084028432168DE
:101C0000C860206807F089FA8046206807F071FAFA
:101C10000746B8F1000F3BD1D7BB207DE16A00E059
:101C200050E041EA80352068C06844F203018843EF
:101C300028432168C86094F83800012817D1606AE9
:101C400008B1A06A00B900BFA08F401E012141EA7F
:101C50000041206C0843616C0843A16C0843216873
:101C60000969264A114008432168086105E0206897
:101C7000006920F00100216808612068006920F0F7
:101C80007040616B0843216808612046FEF728FE1A
:101C9000E068012809D12068006B20F00F00A169DD
:101CA000491E08432168086305E02068006B20F0A6
:101CB0000F0021680863606D20F0020040F0010011
:101CC000606505E0606D40F0100060654FF001094F
:101CD0004846D8E6C0FFFF5FC0FFFF7FC00000247A
:101CE000400D03000020024000210240002302407A
:101CF000006302580060025803C0F0FF1EF800FCA9
:101D000010B58AB00446142105A8FEF70DFD002089
:101D100001900290039004906A49206888427DD126
:101D200000BF6948006840F0200067490860084625
:101D3000006800F02000009000BF00BF00BF6248B4
:101D40000830006840F004005F4908310860084628
:101D5000006800F00400009000BF00BF00BF08460C
:101D6000006840F0010008600846006800F00100CB
:101D7000009000BF00BF00BF0846006840F00200AE
:101D800008600846006800F00200009000BF00BF35
:101D90000320059006900020079005A94B4802F00B
:101DA00037F9CF200590032006900020079005A961
:101DB000474802F02DF902200590032006900020EC
:101DC000079005A9434802F023F900BF3E48006888
:101DD00040F001003C4908600846006800F001003E
:101DE000009000BF00BF3C483C49086009204860A3
:101DF00000213A488160C1604FF48061016149006F
:101E00004161890081614911C16100210162416222
:101E100001F06AFC08B1FFF70EFB00E004E000BF30
:101E20002E48E06484634AE02D492068884246D108
:101E300000BF25480830006840F080702249083112
:101E400008600846006800F08070009000BF00BF86
:101E500000BF0846006840F00400086008460068BB
:101E600000F00400009000BF00BF4FF08061084602
:101E700006F0BCF84FF00061084606F0B7F81648C7
:101E800018301849086073204860002115488160A7
:101E9000C1604FF480610161490041618900816145
:101EA0004911C16100210162416201F01DFC08B1CC
:101EB000FFF7C1FA00BF0B48E064846300BF0AB0BB
:101EC00010BD000000200240D8440258000802580B
:101ED00000000258000402581000024004C0002410
:101EE000006002587CC000242DE9F04104460F46F2
:101EF0009046434A2168914203D0424A2168914268
:101F000001D1414900E04149084607F0EDF8064695
:101F1000206807F002F900286ED100BF94F8500045
:101F2000012802D10220BDE8F081012084F8500090
:101F300000BF1EB1052E01D0092E57D12046FEF755
:101F400029FE0546002D4CD1606D40F601618843A5
:101F500040F4807060652B492068884201D1284890
:101F600000E020682168884200D01EB9606D20F42E
:101F700080106065606D00F4805020B1A06D20F08D
:101F80000600A06501E00020A0652148E16CC8635F
:101F90002048E16C08642048E16CC8641C2021687A
:101FA000086000BF002084F8500000BF206840682F
:101FB00040F0100021684860E16A2068C26822F0A1
:101FC00003020A43C26000BF226802F14001434697
:101FD0003A46E06C01F018FE0546206807F0ACF8C0
:101FE0000BE000BF002084F8500006E0012500BF90
:101FF000002084F8500000E00225284693E7000006
:1020000000200240002102400023024000630258E9
:10201000410A0008F10A0008D30A00082DE9F04738
:1020200004460D4616462869012800D100BF2868DD
:10203000042800D100BF00BF6079012802D102202E
:10204000BDE8F0870120607100BF02202071286880
:10205000042855D102F0E0F88146D6B90CE002F030
:10206000DBF8A0EB0900012806D9206940F0080040
:10207000206103202071E3E72068406B534908404A
:102080000028ECD1012001F0AFFFA86921680864A5
:1020900019E00CE002F0C0F8A0EB0900012806D915
:1020A000206940F00800206103202071C8E7206803
:1020B000406B00F000400028ECD1012001F094FFBB
:1020C000A869216848642068806C06F0100240F21C
:1020D000FF319140884306F01002E96991400843BE
:1020E000216888642068C06C06F01002FF219140CE
:1020F000884306F01002296A914008432168C864A9
:10210000286901280FD12068876B06F010011F2075
:1021100088408743D5F814A006F010000AFA00F0B2
:102120000743206887632068C76B06F0100107200B
:1021300088408743E868012802D14FF000080CE08E
:10214000E868022802D14FF0010806E0A86810B93B
:102150004FF0010801E04FF00008A9682868084323
:1021600040EA080A06F010010AFA01F00743206865
:10217000C7632068006806F010024FF48041914068
:102180008843216808602068076806F0100140F65F
:10219000FE7088408743D5F804A006F010010AFAC3
:1021A00001F00743206807602068006806F010020D
:1021B000C02191408843216808600120207100BF40
:1021C0000020607100BF00BF3AE7000000800020DF
:1021D00010B504460CB9012010BD207920B90020AB
:1021E0006071204600F008F8022020710020206174
:1021F000012020710020EFE710B586B004461421BD
:1022000001A8FEF791FA17492068884227D100BF3C
:102210001548006840F000501349086008460068FF
:1022200000F00050009000BF00BF00BF0E4808380B
:10223000006840F001000C49083908600846006851
:1022400000F00100009000BF00BF3020019003208B
:1022500002900020039001A9044801F0D9FE06B0C5
:1022600010BD000000740040E8440258000002580D
:1022700038B50446002000902068009029B902F18A
:102280000800009D2844009004E002F11400009D25
:102290002844009000980360002038BD10B5024625
:1022A00000BF5079012801D1022010BD01205071DA
:1022B00000BF022010711068006801F010040123B3
:1022C000A34018431368186061B91068006800F0F3
:1022D0003E00022816D11068406840F001001368E3
:1022E00058600FE01068006800F4781301F01004E3
:1022F0000220A040834205D11068406840F00200EF
:10230000136858600120107100BF0020507100BF99
:1023100000BFCAE710B50446606E0068A16E0840B1
:1023200088B1206E006820F48070216E0860D4E9C6
:1023300019104860606D40F400706065E06C10B189
:102340002046E16C8847E06EB0B1206F0068616F95
:10235000084088B1E06E006820F48070E16E08608B
:10236000D4E91C104860606D40F480606065E06CEA
:1023700010B12046E16C884710BD00002DE9F04106
:10238000044601F049FF804614B90120BDE8F08100
:1023900094F83500022808D08020606500BF002036
:1023A00084F8340000BF0120F0E7FE49206888422D
:1023B00049D0FC4918312068884244D0F94930316D
:1023C000206888423FD0F7494831206888423AD097
:1023D000F44960312068884235D0F249783120686C
:1023E000884230D0EF499031206888422BD0ED49A7
:1023F000A8312068884226D0EB492068884222D044
:10240000E9491831206888421DD0E74930312068F9
:10241000884218D0E44948312068884213D0E24904
:102420006031206888420ED0DF49783120688842C8
:1024300009D0DD4990312068884204D0DA49A831BA
:102440002068884201D1012000E0002068B12068A6
:10245000006820F01E00216808602068406920F0B4
:10246000800021684861256806E02068006820F047
:102470000E00216808602568CA492068884270D02B
:10248000C8491831206888426BD0C649303120686D
:10249000884266D0C34948312068884261D0C1492A
:1024A0006031206888425CD0BE497831206888421B
:1024B00057D0BC4990312068884252D0B949A831E0
:1024C000206888424DD0B8492068884249D0B64932
:1024D00018312068884244D0B3493031206888429E
:1024E0003FD0B1494831206888423AD0AE49603186
:1024F0002068884235D0AC4978312068884230D095
:10250000A9499031206888422BD0A749A83120687A
:10251000884226D0A5492068884222D0A349143198
:10252000206888421DD0A14928312068884218D0EF
:102530009E493C312068884213D09C495031206824
:1025400088420ED0994964312068884209D0974961
:1025500078312068884204D094498C3120688842C0
:1025600001D1012000E0002028B1206E006820F495
:102570008070216E08608B492068884249D0894963
:1025800018312068884244D086493031206888421A
:102590003FD084494831206888423AD0814960312F
:1025A0002068884235D07F4978312068884230D011
:1025B0007C499031206888422BD07A49A831206824
:1025C000884226D078492068884222D0764918313E
:1025D000206888421DD0744930312068884218D064
:1025E000714948312068884213D06F4960312068B2
:1025F00088420ED06C4978312068884209D06A49F7
:1026000090312068884204D06749A8312068884208
:1026100006D12068006820F001002168086005E00C
:102620002068006820F001002168086011E001F0D6
:10263000F3FDA0EB080005280BD9202060650320DE
:1026400084F8350000BF002084F8340000BF01206A
:102650009CE6286800F001000028E8D15149206874
:10266000884249D04F4918312068884244D04D49AA
:102670003031206888423FD04A494831206888423A
:102680003AD0484960312068884235D04549783190
:102690002068884230D043499031206888422BD04E
:1026A0004049A8312068884226D03F4920688842A6
:1026B00022D03D491831206888421DD03A49303136
:1026C0002068884218D0384948312068884213D0A1
:1026D00035496031206888420ED03349783120680E
:1026E000884209D0304990312068884204D02E4970
:1026F000A8312068884201D1012000E0002040B1CB
:10270000A66D94F85C0000F01F013F208840B06087
:1027100007E0A76D94F85C0000F01F0101208840DD
:10272000786020492068884276D01E491831206898
:10273000884271D01B493031206888426CD01949D9
:1027400048312068884267D0164960312068884245
:1027500062D014497831206888425DD011499031A7
:102760002068884258D00F49A8312068884253D049
:102770000D49206888424FD00B49183120688842A3
:102780004AD0094930312068884245D0064948314D
:102790002068884240D004496031206888423BD09C
:1027A000014905E01000024010040240085402589C
:1027B0007831206888422FD02549206888422BD064
:1027C000234918312068884226D02249206888424F
:1027D00022D020491431206888421DD01D4928315B
:1027E0002068884218D01B493C312068884213D0A9
:1027F00018495031206888420ED01649643120684B
:10280000884209D0134978312068884204D01149A0
:102810008C312068884201D1012000E0002068B19D
:10282000D4E919104860E06E40B1E06E006820F411
:102830008070E16E0860D4E91C104860012084F8C3
:10284000350000BF002084F8340000BF00BF9DE5C4
:10285000A00402400854025870B504460CB9012087
:1028600070BD94F83500022803D0802060650120F7
:10287000F6E7DC492068884249D0DA4918312068F7
:10288000884244D0D7493031206888423FD0D5496A
:102890004831206888423AD0D24960312068884265
:1028A00035D0D04978312068884230D0CD49903138
:1028B000206888422BD0CB49A8312068884226D096
:1028C000C9492068884222D0C74918312068884207
:1028D0001DD0C54930312068884218D0C2494831DE
:1028E0002068884213D0C0496031206888420ED0E9
:1028F000BD4978312068884209D0BB4990312068B1
:10290000884204D0B849A8312068884201D101200A
:1029100000E00020F0B3042084F83500B1492068BD
:1029200088424BD0AF4918312068884246D0AD4923
:1029300030312068884241D0AA4948312068884215
:102940003CD0A84960312068884237D0A549783109
:102950002068884232D0A3499031206888422DD027
:10296000A049A8312068884228D09F492068884221
:1029700024D09D491831206888421FD09A493031AF
:10298000206888421AD0984948312068884215D07A
:10299000954900E020E06031206888420ED09249DD
:1029A00078312068884209D08F4990312068884268
:1029B00004D08D49A8312068884206D1206800687B
:1029C00020F001002168086009E12068006820F01B
:1029D00001002168086002E12068006820F00E0014
:1029E000216808607F492068884249D07D491831B4
:1029F0002068884244D07B493031206888423FD0EB
:102A000078494831206888423AD076496031206858
:102A1000884235D0734978312068884230D0714976
:102A20009031206888422BD06E49A83120688842B6
:102A300026D06D492068884222D06B491831206821
:102A400088421DD0684930312068884218D06649D4
:102A500048312068884213D0634960312068884239
:102A60000ED0614978312068884209D05E499031A2
:102A70002068884204D05C49A8312068884206D189
:102A80002068006820F001002168086005E02068E7
:102A9000006820F0010021680860524920688842DF
:102AA00070D050491831206888426BD04D49303180
:102AB0002068884266D04B4948312068884261D0FE
:102AC00048496031206888425CD0464978312068A6
:102AD000884257D0434990312068884252D04149BA
:102AE000A831206888424DD03F492068884249D0AB
:102AF0003D4918312068884244D03B493031206834
:102B000088423FD038494831206888423AD0364917
:102B100060312068884235D0334978312068884256
:102B200030D031499031206888422BD02E49A831CD
:102B30002068884226D02D492068884222D02B491F
:102B40001431206888421DD02849283120688842E5
:102B500018D026493C312068884213D0234950318F
:102B6000206888420ED0214964312068884209D00B
:102B70001E4978312068884204D01C498C31206875
:102B8000884201D1012000E00020D8B1206E006809
:102B900020F48070216E0860A56D94F85C0000F050
:102BA0001F01012088406860D4E919104860E06E78
:102BB00040B1E06E006820F48070E16E0860D4E9F6
:102BC0001C104860012084F8350000BF002084F804
:102BD000340000BF206D10B12046216D88470020D1
:102BE0003EE6000010000240100402400854025863
:102BF0002DE9F84F044600200090FE4800684FF48D
:102C00001651B0FBF1FAA66DD4F858803768D8F8A1
:102C10000090F9492068884249D0F7491831206866
:102C2000884244D0F4493031206888423FD0F2498C
:102C30004831206888423AD0EF49603120688842A4
:102C400035D0ED4978312068884230D0EA4990315A
:102C5000206888422BD0E849A8312068884226D0D5
:102C6000E6492068884222D0E44918312068884229
:102C70001DD0E24930312068884218D0DF49483100
:102C80002068884213D0DD496031206888420ED028
:102C9000DA4978312068884209D0D84990312068D3
:102CA000884204D0D549A8312068884201D101204A
:102CB00000E0002000287DD094F85C0000F01F01A7
:102CC000082088403840002868D0CB4920688842D6
:102CD00049D0C94918312068884244D0C6493031AA
:102CE000206888423FD0C4494831206888423AD0A1
:102CF000C14960312068884235D0BF4978312068A9
:102D0000884230D0BC499031206888422BD0BA49E3
:102D1000A8312068884226D0B8492068884222D04D
:102D2000B6491831206888421DD0B4493031206836
:102D3000884218D0B14948312068884213D0AF4941
:102D40006031206888420ED0AC49783120688842D2
:102D500009D0AA4990312068884204D0A749A831F7
:102D60002068884204D12068006800F0040003E075
:102D70002068006800F0080080B12068006820F03A
:102D800004002168086094F85C0000F01F0108202E
:102D90008840B060606D40F00100606594F85C00B0
:102DA00000F01F01012088403840E8B392492068B4
:102DB000884200E0B7E24BD08F4918312068884242
:102DC00046D08D4930312068884241D08A49483107
:102DD000206888423CD0884960312068884237D0DA
:102DE000854978312068884232D083499031206803
:102DF00088422DD08049A8312068884228D07F4958
:102E00002068884224D07D491831206888421FD02C
:102E10007A493031206888421AD078494831206890
:102E2000884215D0754900E026E06031206888426C
:102E30000ED0724978312068884209D06F499031AC
:102E40002068884204D06D49A8312068884204D1A6
:102E50002068406900F0800002E0206800680020DF
:102E600050B194F85C0000F01F0101208840B06070
:102E7000606D40F00200606594F85C0000F01F0196
:102E8000042088403840E8B35B49206888424BD032
:102E9000594918312068884246D057493031206856
:102EA000884241D054494831206888423CD0524938
:102EB00060312068884237D04F4978312068884295
:102EC00032D04D499031206888422DD04A49A831EE
:102ED0002068884228D049492068884224D0474940
:102EE0001831206888421FD0444930312068884218
:102EF0001AD0424948312068884215D03F49603194
:102F0000206800E024E088420ED03C4978312068F7
:102F1000884209D0394990312068884204D0374925
:102F2000A8312068884204D12068006800F00200BF
:102F300002E020680068002050B194F85C0000F0C6
:102F40001F0104208840B060606D40F0040060659F
:102F500094F85C0000F01F01102088403840E8B36E
:102F600025492068884251D0234918312068884279
:102F70004CD0214930312068884247D01E49483121
:102F80002068884242D01C496031206888423DD088
:102F9000194978312068884238D017499031206823
:102FA000884233D01449A831206888422ED0134972
:102FB000206888422AD0114918312068884225D0DB
:102FC0000E4930312068884220D00C4948312068B1
:102FD00088421BD009496031206800E04DE08842FA
:102FE00014D006497831206888420FD003499031C7
:102FF000206805E0C00000241000024010040240D8
:10300000884203D0FE492068884204D120680068C5
:1030100000F0080003E02068006800F0040060B3DE
:1030200094F85C0000F01F0110208840B060206818
:10303000006800F4802080B12068006800F400205F
:1030400028B9206CC8B12046216C884715E0A06CD7
:1030500098B12046A16C88470FE02068006800F412
:10306000807028B92068006820F008002168086096
:10307000206C10B12046216C884794F85C0000F069
:103080001F0120208840384000287DD0DD4920687D
:10309000884249D0DB4918312068884244D0D94958
:1030A0003031206888423FD0D64948312068884274
:1030B0003AD0D44960312068884235D0D14978313E
:1030C0002068884230D0CF499031206888422BD088
:1030D000CC49A8312068884226D0C949A83920683F
:1030E000884221D0C6499039206888421CD0C44902
:1030F00078392068884217D0C149603920688842F1
:1031000012D0BF494839206888420DD0BC493039B7
:103110002068884208D0BA4918392068884203D00C
:10312000B7492068884204D12068006800F0100088
:1031300003E02068006800F0020028B394F85C0007
:1031400000F01F0120208840B06094F8350004286A
:103150002DD12068006820F01600216808602068E2
:10316000406920F0800021684861206C08B9A06C9B
:1031700028B12068006820F008002168086094F8F1
:103180005C0000F01F0100E03FE03F208840B0609D
:10319000012084F8350000BF002084F8340000BF0F
:1031A000206D10B12046216D8847BDE8F88F20685A
:1031B000006800F4802080B12068006800F40020DE
:1031C00028B9606C08B32046616C88471DE0E06B4D
:1031D000D8B12046E16B884717E02068006800F40A
:1031E000807068B92068006820F0100021680860CD
:1031F000012084F8350000BF002084F8340000BFAF
:10320000E06B10B12046E16B8847606D00287AD0F2
:10321000606D00F00100E8B3042084F835007949BE
:10322000206888424BD0774918312068884246D0C0
:10323000744930312068884241D072494831206851
:1032400088423CD06F4960312068884237D06D4950
:1032500078312068884232D06A49903120688842AB
:103260002DD06849A8312068884228D06449A839FF
:103270002068884223D062499039206888421ED055
:103280005F4978392068884219D05D4960392068E3
:10329000884200E040E012D059494839206888420D
:1032A0000DD0574930392068884208D05449183920
:1032B0002068884203D052492068884206D120689D
:1032C000006820F001002168086005E020680068BF
:1032D00020F001002168086000BF0098401C0090A9
:1032E000504500D905E02068006800F00100002882
:1032F000F3D100BF2068006800F0010020B1032076
:1033000084F8350003E00DE0012084F8350000BFAB
:10331000002084F8340000BFE06C002802D0204672
:10332000E16C8847D9E138492068884222D0364983
:103330001431206888421DD03349283120688842E2
:1033400018D031493C312068884213D02E49503181
:10335000206888420ED02C4964312068884209D008
:10336000294978312068884204D027498C31206867
:10337000884201D1012000E000200028D2D020683E
:10338000056894F85C0000F01F010420884000EA02
:103390000900D8B305F00400C0B394F85C0000F055
:1033A0001F0104208840C8F8040005F4004080B1E3
:1033B00005F4803030B9A06C0028B3D02046A16C51
:1033C00088478AE1206C0028ACD02046216C8847D1
:1033D00083E105F02000E8BB0A492068884253D009
:1033E00008491831206888424ED00649303120689B
:1033F000884249D0034948312068884244D006E0D9
:10340000B804024010000240085402584FE0B4498A
:1034100060312068884237D0B149783120688842CD
:1034200032D0AF499031206888422DD0AC49A831C4
:103430002068884228D0AB492068884224D0A94916
:103440001831206888421FD0A64930312068884250
:103450001AD000E025E0A34948312068884213D003
:10346000A0496031206888420ED09E49783120689A
:10347000884209D09B4990312068884204D09949FC
:10348000A8312068884206D12068006820F0080032
:103490002168086005E02068006820F004002168C9
:1034A0000860206C10B32046216C884715E194F821
:1034B0005C0000F01F010220884000EA0900E8B328
:1034C00005F00200D0B394F85C0000F01F01022068
:1034D0008840C8F8040005F4004070B105F480305D
:1034E00028B9606C10B12046616C8847F5E0E06B4C
:1034F000F0B32046E16B8847EFE005F02000C0BB49
:103500007749206888424ED0754918312068884232
:1035100049D0734930312068884244D070494831DD
:10352000206888423FD06E496031206888423AD096
:103530006B4978312068884235D000E04EE0684918
:103540009031206888422ED06549A8312068884291
:1035500029D064492068884225D062491831206802
:10356000884220D05F493031206888421BD001E07A
:103570006EE02DE05B4948312068884213D05949FC
:103580006031206888420ED05649783120688842E0
:1035900009D0544990312068884204D05149A8315B
:1035A0002068884206D12068006820F01400216855
:1035B000086005E02068006820F00A0021680860C3
:1035C000012084F8350000BF002084F8340000BFDB
:1035D000E06BE8B32046E16B88477EE094F85C003E
:1035E00000F01F010820884000EA090080B305F0C0
:1035F000080068B33A49206888424BD038491831EE
:103600002068884246D0364930312068884241D00F
:1036100033494831206888423CD0314960312068C4
:10362000884237D02E4978312068884232D02C49E0
:103630009031206888422DD02949A83120688842DD
:1036400028D028492068884224D02649183100E033
:1036500043E0206888421DD02249303120688842EA
:1036600018D0204948312068884213D01D49603164
:10367000206888420ED01B4978312068884209D0E2
:10368000184990312068884204D01649A831206832
:10369000884206D12068006820F01C00216808607C
:1036A00005E02068006820F00E002168086094F8AA
:1036B0005C0000F01F0101208840C8F804000120D0
:1036C000606584F8350000BF002084F8340000BF36
:1036D000E06C10B12046E16C884700BF65E5000052
:1036E00010000240100402402DE9F041044600F0B1
:1036F00093FD804614B90120BDE8F081FE492068A1
:10370000884249D0FC4918312068884244D0FA499F
:103710003031206888423FD0F749483120688842DC
:103720003AD0F54960312068884235D0F249783185
:103730002068884230D0F0499031206888422BD0F0
:10374000ED49A8312068884226D0EC49206888429B
:1037500022D0EA491831206888421DD0E74930312B
:103760002068884218D0E54948312068884213D043
:10377000E2496031206888420ED0E0497831206803
:10378000884209D0DD4990312068884204D0DB4965
:10379000A8312068884201D1012000E000200028E3
:1037A00073D0606A00B100BF022084F8350000BF0A
:1037B000002084F8340000BFCF492068884249D0F7
:1037C000CD4918312068884244D0CB493031206837
:1037D00088423FD0C8494831206888423AD0C6491B
:1037E00060312068884235D0C349783120688842EA
:1037F00030D0C1499031206888422BD0BE49A831D1
:103800002068884226D0BD492068884222D0BB4922
:103810001831206888421DD0B8493031206888426C
:1038200018D0B64948312068884213D0B349603176
:10383000206888420ED0B14978312068884209D08A
:10384000AE4990312068884204D0AC49A831206844
:10385000884206D12068006820F0010021680860D5
:1038600005E02068006820F00100216808600DE094
:1038700000F0D2FCA0EB0800052807D920206065E5
:10388000032084F83500012036E76AE020680068EC
:1038900000F001000028EBD1206805689848054039
:1038A000D4E9020108432169084361690843A16919
:1038B0000843E1690843216A08430543606A042814
:1038C00003D1D4E90B01084305438E4800686FF328
:1038D0000F00B0F1005F1DD36068292802D3606833
:1038E0002E2811D960683F2802D3606842280BD97E
:1038F0006068472802D36068482805D960684F2867
:1039000004D36068522801D8012000E0002008B1EB
:1039100045F48015206805602068456925F0070595
:10392000606A0543606A04280DD1A06A0543E06A15
:1039300048B12046FDF7ECFB28B14020606501202E
:1039400084F83500D8E6206845612046FDF7BCFACA
:10395000064694F85C0000F01F013F208840B060EC
:103960009EE069492068884222D067491431206866
:1039700088421DD0644928312068884218D06249A5
:103980003C312068884213D05F495031206888421A
:103990000ED05D4964312068884209D05A49783197
:1039A0002068884204D058498C312068884201D16F
:1039B000012000E00020E0B353492068884222D073
:1039C00051491431206888421DD04F492831206860
:1039D000884218D04C493C312068884213D04A496B
:1039E0005031206888420ED04749643120688842AF
:1039F00009D0454978312068884204D042498C3149
:103A00002068884201D1012000E0002000B100BF01
:103A1000022084F8350000BF002084F8340000BF85
:103A20002068056839480540A068402802D1102167
:103A300006E02EE0A068802801D1C10100E000214D
:103A4000E06841EAD001206941EAD001606941EAB9
:103A5000D001A06941EAD001E06941EAD001206AC1
:103A600041EA101005432068056027492068401A84
:103A70001421B0FBF1F08000E0652046FDF724FA48
:103A8000074694F85C0000F01F0101208840786030
:103A900006E040206065032084F8350001202BE615
:103AA0001549206888427FD0134918312068884220
:103AB0007AD0114930312068884275D00E4948319A
:103AC0002068884270D00C496031206888426BD0F1
:103AD000094978312068884266D0074990312068CA
:103AE000884261D00449A831206888425CD00349EB
:103AF0002068884258D00BE01000024010040240B9
:103B00003F8010FE0010005C085402580F00FEFFBA
:103B10003B4918312068884246D039493031206805
:103B2000884241D036494831206888423CD03449E7
:103B300060312068884237D0314978312068884226
:103B400032D02F499031206888422DD02C49A8319D
:103B50002068884228D02B492068884224D02949EF
:103B60001431206888421FD02649283120688842B5
:103B70001AD024493C312068884215D0214950315F
:103B80002068884210D01F496431206888420BD0D9
:103B90001C4978312068884206D01A498C31206847
:103BA000884200E000E001D1012000E0002000B3E5
:103BB0002046FDF7FFF9A068802801D10020606051
:103BC0002079216E0860D4E919104860606860B1FE
:103BD0006068082809D82046FDF74EFA0020E16EFB
:103BE0000860D4E91C10486003E00020E06620670C
:103BF000606700206065012084F8350000207BE5C7
:103C000010040240085402582DE9F04104460D46C4
:103C100016461F464FF0000814B90120BDE8F08198
:103C200000BF94F83400012801D10220F6E70120FA
:103C300084F8340000BF94F8350001287ED10220BA
:103C400084F8350000206065E4492068884249D046
:103C5000E24918312068884244D0E0493031206878
:103C600088423FD0DD494831206888423AD0DB495C
:103C700060312068884235D0D84978312068884240
:103C800030D0D6499031206888422BD0D349A83112
:103C90002068884226D0D2492068884222D0D04964
:103CA0001831206888421DD0CD49303120688842C3
:103CB00018D0CB4948312068884213D0C8496031B8
:103CC000206888420ED0C64978312068884209D0E1
:103CD000C34990312068884204D0C149A831206886
:103CE000884206D12068006820F001002168086041
:103CF00005E02068006820F00100216808603B466C
:103D0000324629462046FDF75BFAB44920688842CE
:103D10004BD0B24918312068884246D0AF49303183
:103D20002068884241D0AD494831206888423CD063
:103D3000AA4960312068884237D000E042E1A749B3
:103D400078312068884230D0A44990312068884278
:103D50002BD0A249A8312068884226D0A0492068EB
:103D6000884222D09E491831206888421DD09C4943
:103D700030312068884218D09949483120688842FB
:103D800013D097496031206888420ED09449783129
:103D90002068884209D0924990312068884204D036
:103DA0008F49A8312068884201D1012000E000201D
:103DB00080B12068006820F01E0040F016002168E5
:103DC0000860206CB0B12068006840F008002168ED
:103DD00008600FE02068006820F00E0040F00A0044
:103DE00021680860206C28B12068006840F0040059
:103DF0002168086079492068884270D07749183175
:103E0000206888426BD0754930312068884266D07E
:103E1000724948312068884261D070496031206819
:103E200088425CD06D4978312068884257D06B4910
:103E300090312068884252D06849A8312068884271
:103E40004DD067492068884249D0654918312068BB
:103E5000884244D062493031206888423FD060496E
:103E60004831206888423AD05D49603120688842F4
:103E700035D05B4978312068884230D0584990313C
:103E8000206888422BD05649A8312068884226D025
:103E900054492068884222D052491431206888420F
:103EA0001DD0504928312068884218D04D493C31F6
:103EB0002068884213D04B495031206888420ED088
:103EC000484964312068884209D0464978312068E1
:103ED000884204D043498C312068884201D10120B6
:103EE00000E0002090B1206E006800F4803028B11E
:103EF000206E006840F48070216E0860E06E28B18A
:103F0000E06E006840F48070E16E0860334920681C
:103F1000884249D0314918312068884244D02F491D
:103F20003031206888423FD02C494831206888428F
:103F30003AD02A4960312068884235D02749783103
:103F40002068884230D025499031206888422BD0A3
:103F50002249A8312068884226D021492068884219
:103F600022D01F491831206888421DD01C493031A9
:103F70002068884218D01A4948312068884213D0F6
:103F800017496031206888420ED015497831206881
:103F9000884209D0124990312068884204D01049E3
:103FA000A8312068884206D12068006840F00100EE
:103FB0002168086010E02068006840F00100216876
:103FC000086009E04FF40060606500BF002084F8DD
:103FD000340000BF4FF0010840461FE610000240C9
:103FE000100402400854025870B5044600F014F959
:103FF00006462546681C10B104480078054400BFF9
:1040000000F00AF9801BA842FAD370BDBC0000245E
:10401000F8B502460B4600216F4DD7E001278F40CF
:104020001E6806EA0704002C72D01E7906F003060B
:10403000012E04D01E7906F00306022E13D19068DB
:104040004F000326BE40B0434F00DE68BE40304301
:104050009060506801268E40B0431E79C6F300166A
:104060008E40304350601E7906F00306032E09D0BF
:10407000D0684F000326BE40B0434F009E68BE404C
:104080003043D0601E7906F00306022E13D1CF080C
:1040900002F1200656F827004E07F70E0F26BE4005
:1040A000B0434F07FF0E1E69BE403043CF0802F1F8
:1040B000200646F8270010684F000326BE40B04394
:1040C0001E7906F003064F00BE40304310605E6864
:1040D00006F44036002E78D000BF404E366846F0D9
:1040E00002063E4F3E603E46366806F002060096E7
:1040F00000BF00BF3A4E8F0856F827008E07370FD3
:104100000F26BE40B043374EB24202D100262EE009
:104110005BE0354EB24201D1012628E0334EB24277
:1041200001D1022623E0324EB24201D103261EE025
:10413000304EB24201D1042619E02F4EB24201D1D5
:10414000052614E02D4EB24201D106260FE02C4E7A
:10415000B24201D107260AE02A4EB24201D1082616
:1041600005E0294EB24201D1092600E00A268F0758
:104170003F0FBE4030431A4E8F0846F827004FF0DD
:10418000B0463068A0435E6806F4801606B120434E
:104190004FF0B04630607068A0435E6806F40016C9
:1041A00006B120434FF0B04670606868A0435E6877
:1041B00006F4003606B1204368602868A0435E68B4
:1041C00006F4803606B120432860491C1E68CE40A4
:1041D000002E7FF423AFF8BD80000058F44402584D
:1041E0000804005800000258000402580008025851
:1041F000000C02580010025800140258001802580F
:10420000001C02580020025800240258014800688F
:10421000000C70470010005C014800687047000007
:10422000B400002470B504460CB9012070BD4CF6F2
:10423000CC402168086045F2555021680860D4E9F7
:10424000001048602168A0688860FFF7E5FF054618
:104250000BE0FFF7E1FF401B312806D92068C0685A
:1042600000F0070008B10320E0E72068C06800F014
:1042700007000028EDD120680169E068814203D081
:104280002168E068086103E04AF6AA202168086016
:104290000020CBE701464AF6AA200A6810600020F9
:1042A0007047000003480068034909780844014941
:1042B00008607047B4000024BC00002410B503203F
:1042C00000F0CEF803F07CF910490968C1F303212E
:1042D0000F4A515C01F01F0120FA01F40B480068FD
:1042E00000F00F001146085C00F01F0024FA00F0F7
:1042F0000849086008480460002000F00FF808B181
:10430000012010BD00F036F80020FAE718440258EA
:1043100050EF0008C4000024C000002470B504461B
:104320001148007808B9012070BD0F4800784FF49B
:104330007A71B1FBF0F00D490968B1FBF0F5284640
:1043400003F086FE08B10120EEE7102C07D2002210
:104350002146501E00F046F80548046001E00120A7
:10436000E2E70020E0E70000BC000024C0000024D9
:10437000B800002408B500BF0F48006840F00200F4
:104380000D4908600846006800F00200009000BF78
:1043900000BF00BF0846006840F4004008600846BF
:1043A000006800F40040009000BF00BF03F028FE4A
:1043B000022003F02FFE08BDF444025801460846CF
:1043C00000280DDB00BF00BF00F01F0301229A4050
:1043D00043099B0003F1E023C3F8002100BF00BFA5
:1043E00000BF70472DE9F05F80460D46164609F084
:1043F00033FE074639462A46334601F00700C0F12E
:10440000070ABAF1040F02D94FF0040A01E0C0F123
:10441000070AD14600F1040ABAF1070F02D24FF0A1
:10442000000A01E0A0F1030AD4464FF0010A0AFA9B
:1044300009FAAAF1010A0AEA020A0AFA0CFA4FF08A
:10444000010B0BFA0CFBABF1010B0BEA030B4AEA75
:104450000B042146404609F007FEBDE8F09F00002E
:1044600000BF00F00702064B19684FF6FF03194022
:10447000044B0B4343EA0221014B196000BF704714
:104480000CED00E00000FA0570B5044600260CB9FA
:10449000012070BD94F83200052801D10120F8E711
:1044A00094F83200022801D10120F2E7A06800B997
:1044B00000BFA068402800D100BFE069B0F5802FA0
:1044C00003D1606800B900E000BF94F8320010B971
:1044D000002084F83100204600F06CF82068006865
:1044E00020F4006021680860A068402811D1D4E958
:1044F0000101084361690843A16908432169084330
:10450000E169084321680968284A11400843216885
:104510000860A06860280DD1D4E901010843216931
:104520000843E169084321680968214A11400843AA
:1045300021680860A06878B9D4E901010843E168FE
:10454000084321690843E169084321680968184A5A
:104550001140084321680860E069B0F5802F1CD144
:104560006068B0F5807F0CD0D4E9080141EA0025ED
:104570002068406841F61F718843284321684860DD
:104580000BE0D4E90A0141EA00252068806841F681
:104590001F71884328432168886094F8320010B95D
:1045A000012084F83200304673E70000933EF8FFA4
:1045B00093FEFBFF10B586B00446142101A8FCF75A
:1045C000B3F843492068884248D142480068401CFB
:1045D000404908600846006801280DD100BF3E48E8
:1045E000006840F010003C4908600846006800F090
:1045F0001000009000BF00BF00BF37480C380068B3
:1046000040F0040034490C3908600846006800F0A6
:104610000400009000BF00BF00BF0846006840F0E3
:10462000020008600846006800F00200009000BF29
:1046300000BF30200190032002900020039001A9C8
:104640002648FFF7E5FC012001900320029000209E
:10465000039001A92248FFF7DBFC36E01C4910312A
:104660002068884231D11B480068401C1949086005
:104670000846006801280DD100BF1748006840F0C7
:104680001000154908600846006800F0100000900E
:1046900000BF00BF00BF10480C38006840F0100099
:1046A0000D490C3908600846006800F010000090C1
:1046B00000BF00BF4FF46070019003200290002003
:1046C000039001A90748FFF7A3FC06B010BD000046
:1046D0000090004038000024EC44025800080258C2
:1046E00000040258001002580146002009B90120B8
:1046F00014E091F83220052A01D101200EE091F852
:104700003220012A09D10A68126842F001020B68BE
:104710001A60042281F8322000E00120704701462F
:10472000002009B901201AE091F83220052A01D1B0
:10473000012014E091F83220022A01D101200EE07C
:1047400091F83220042A09D10A68126822F0010285
:104750000B681A60012281F8322000E001207047C6
:1047600001460A680120C1F8FC03002081F8F40327
:10477000906940F000609061506D024B18435065A5
:104780000020704703000010704702461068416225
:1047900000207047F0B5034615461868446A21B9F1
:1047A00044EA05401E68B06219E01868806A04EBAC
:1047B0001044002208E0186800F5827050F82200CA
:1047C00004EB1044501CC2B2481E9042F3D844EA95
:1047D0000547186800F582704E1E40F826700020CC
:1047E000F0BD10B50446D4F8040407F0EBFF10BD8B
:1047F00070B504460D46C5EBC50304F13C0101EB61
:104800008301CA682946D4F8040407F023FF70BD69
:1048100070B504460D46C5EBC50304F5FE7101EB0A
:104820008301CA682946D4F8040407F084FF70BDE8
:1048300010B50446D4F8040407F0C7FF10BD70B5E6
:1048400004460E4606F0800080280AD106F00F00CC
:10485000C0EBC00104F13C0000EB81050120687051
:1048600009E006F00F00C0EBC00104F5FE7000EB9C
:1048700081050020687006F00F00287000BF94F8D2
:10488000BC03012801D1022070BD012084F8BC03C3
:1048900000BF2946206808F0FBFC00BF002084F818
:1048A000BC0300BF00BFEFE770B504460E4606F03C
:1048B0000F006168884201D9012070BD06F08000B8
:1048C00080280AD106F00F00C0EBC00104F13C00C3
:1048D00000EB81050120687009E006F00F00C0EBD5
:1048E000C00104F5FE7000EB810500206870002017
:1048F000A87006F00F00287000BF94F8BC030128D0
:1049000001D10220D9E7012084F8BC0300BF294669
:10491000206808F09FFF00BF002084F8BC0300BFA0
:1049200000BFCAE7024601F00F00C0EBC00302F56A
:10493000FE7000EB8300806970472DE9F047054663
:104940000E4690461F464FF0000906F08000802872
:104950000AD106F00F00C0EBC00105F13C0000EBEE
:1049600081040120607009E006F00F00C0EBC00177
:1049700005F5FE7000EB81040020607006F00F006A
:104980002070C4F80880E770607808B12078E08073
:10499000022F01D10020207100BF95F8BC0301282F
:1049A00002D10220BDE8F087012085F8BC0300BFDA
:1049B0002146286808F07AFB00BF002085F8BC0378
:1049C00000BF4846EEE72DE9F04104460E46174683
:1049D000984606F00F00C0EBC00104F5FE7000EB36
:1049E0008105EF60C5F814800020A861687006F0AA
:1049F0000F0028702069012800D12F6106F00F00F8
:104A000028B9227C2946206808F000FE04E0227CB8
:104A10002946206808F0B2FF0020BDE8F08170B59B
:104A200004460D4605F00F006168884201D9012057
:104A300070BD05F0800080280AD105F00F00C0EBA2
:104A4000C00104F13C0000EB81060120707007E01A
:104A5000C5EBC50104F5FE7000EB81060020707007
:104A60000120B07005F00F00307000BF94F8BC0357
:104A7000012801D10220DBE7012084F8BC0300BF3C
:104A80003146206808F02DFF05F00F0028B9217C81
:104A900004F57172206808F0A5FE00BF002084F8BC
:104AA000BC0300BF00BFC3E72DE9F04104460E463A
:104AB0001746984606F00F00C0EBC00104F13C0019
:104AC00000EB8105EF60C5F814800020A86101208B
:104AD000687006F00F0028702069012800D12F614E
:104AE00006F00F0028B9227C2946206808F08EFDC8
:104AF00004E0227C2946206808F040FF0020BDE841
:104B0000F0812DE9FE4F044620680290029D206846
:104B100009F043F900287DD1206809F07DF908B932
:104B2000BDE8FE8F206809F077F900F00200022846
:104B300005D12068406900F00200216848612068C2
:104B400009F06AF900F01000102846D12068806949
:104B500020F01000216888610298D0F8209009F0B8
:104B60000F00C0EBC00104F5FE7000EB810AC9F331
:104B7000434002281AD147F6F07009EA000030B32A
:104B8000C9F30A12DAF80C10029809F04AF9C9F3CD
:104B90000A11DAF80C000844CAF80C00C9F30A112B
:104BA000DAF818000844CAF8180010E0C9F34340C6
:104BB00006280CD1082204F57171029809F031F928
:104BC000C9F30A11DAF818000844CAF81800206876
:104BD000806940F0100021688861206809F01CF9A4
:104BE00000F40020B0F5002F52D10026206809F013
:104BF000E3F8834649E00BF00100E8B3F1B2206826
:104C000009F0FDF8804608F0010058B1012105F5D2
:104C1000306000E03BE200EB461081603146204608
:104C200004F0D6FF08F00800082809D1082105F58E
:104C3000306000EB461081603146204604F096FF5C
:104C400008F01000102805D1102105F5306000EBA8
:104C50004610816008F02000202805D1202105F5AC
:104C6000306000EB4610816008F40050B0F5005F42
:104C700008D14FF4005100E004E005F5306000EB8E
:104C800046108160761C4FEA5B0BBBF1000FB2D17E
:104C9000206809F0C1F800F48020B0F5802F7DD1A4
:104CA000206809F07FF88346002687E00BF00100BA
:104CB000002874D0F1B2206809F088F8804608F026
:104CC0000100F0B306F00F0101208840019040F68A
:104CD00034004159019821EA000040F6340148515E
:104CE000012105F5106000EB461081602069012864
:104CF00024D1C6EBC60104F13C0000EB8100C6EBF9
:104D0000C602C16804F13C0000EB820080680144E7
:104D1000C6EBC60204F13C0000EB8200C1606EB934
:104D2000C6EBC60104F13C0000EB8100406928B9E4
:104D300004F571720121206808F054FDF1B220469B
:104D400000E001E0FFF754FD08F00800082805D155
:104D5000082105F5106000EB4610816008F0100096
:104D6000102805D1102105F5106000EB4610816078
:104D700008F04000402805D1402105F5106000EB07
:104D80004610816008F0020002280CD131460298DA
:104D900008F0C6FF022105F5106001E012E00AE00C
:104DA00000EB4610816008F08000802803D1314676
:104DB000204604F0CBFF761C4FEA5B0BBBF1000FE3
:104DC0007FF474AF206809F027F800F00040B0F1DC
:104DD000004F1CD140F60400405920F0010140F67C
:104DE0000400415194F8F403012807D1002084F80D
:104DF000F40300212046FFF7C7FC02E0204600F044
:104E000083FA2068406900F000402168486120680A
:104E100009F002F800F40060B0F5006F0ED140F622
:104E20000800405900F0010010B1204600F0C4FA1B
:104E30002068406900F4006021684861206808F03B
:104E4000EBFF00F00060B0F1006F19D120684069FD
:104E500000F000602168486194F8F40368B901200B
:104E600084F8F4032068406DC0F38300C4F8F803AD
:104E700001212046FFF788FC02E0204600F09CFA62
:104E8000206808F0C9FF00F48050B0F5805F7ED143
:104E900040F60400405920F0010140F60400415161
:104EA0001021206808F03CFF002732E04FF67F31E8
:104EB00005F5106000EB4710816005F5106000EB10
:104EC0004710006820F4001105F5106000EB471052
:104ED00001604FF67F3105F5306000EB47108160CF
:104EE00005F5306000EB4710006820F4001105F56F
:104EF000306000EB4710016005F5306000EB4710B3
:104F0000006840F0006105F5306000EB471001607B
:104F10007F1C6068B842C9D840F61C00405940F078
:104F2000011140F61C004151206B70B1D5F8840886
:104F300040F00B01C5F8841840F64400405940F099
:104F40000B0140F6440041510FE040F61400405977
:104F500042F22B01084340F614014851081F405902
:104F600040F00B014FF401604151D5F8000820F4E6
:104F7000FE60C5F80008217C04F57172206808F015
:104F800031FC2068406900F48050216800E000E0B6
:104F90004861206808F040FF00F40050B0F5005F61
:104FA00017D1206808F0EAF8206808F0E3FEE06016
:104FB00002F0BCFA0090227B2068009908F0B4FF50
:104FC000204600F089F92068406900F4005021680B
:104FD0004861206808F020FF00F00800082808D188
:104FE000204600F098F92068406900F00800216828
:104FF0004861206808F010FF00F48010B0F5801FB1
:105000000AD100263146204600F043F82068406966
:1050100000F4801021684861206808F0FDFE00F46B
:105020000010B0F5001F0AD100263146204600F0DE
:1050300039F82068406900F4001021684861206850
:1050400008F0EAFE00F08040B0F1804F08D1204621
:10505000FFF7C7FB2068406900F080402168486185
:10506000206808F0D9FE00F0040004280FD1206861
:10507000D0F8049009F00400042802D12046FFF77C
:10508000D7FB2068406840EA09002168486000BFFB
:1050900046E570B504460D462946D4F8040407F0E9
:1050A00005FC70BD70B504460D462946D4F80404CD
:1050B00007F014FC70BD70B58AB0044614B9012025
:1050C0000AB070BD266894F8BD0328B9002084F8A2
:1050D000BC03204600F0A8F8032084F8BD03F06B61
:1050E00000F4807008B900212161206808F086FA78
:1050F000282204F110016846FBF7C2FA94E80F0079
:1051000008F050F820B1022084F8BD030120D7E751
:105110000021206808F0B5FE002531E00121C5EB33
:10512000C50204F13C0000EB82004170C5EBC501F3
:1051300004F13C0000F82150C5EBC50100EB8100F3
:10514000C5800021C5EBC50204F13C0000EB8200E4
:10515000C170C5EBC50204F13C0000EB8200816028
:10516000C5EBC50204F13C0000EB8200C160C5EB59
:10517000C50204F13C0000EB82004161681CC5B22D
:105180006068A842CAD800252AE00021C5EBC50204
:1051900004F5FE7000EB82004170C5EBC50104F51B
:1051A000FE7000F821500021C5EBC50200EB820023
:1051B000C170C5EBC50204F5FE7000EB8200816092
:1051C000C5EBC50204F5FE7000EB8200C160C5EBC3
:1051D000C50204F5FE7000EB82004161681CC5B297
:1051E0006068A842D1D8282204F110016846FBF774
:1051F00047FA94E80F0008F015F920B1022084F86E
:10520000BD0301205CE7002084F83800012084F809
:10521000BD03606A012802D12046FFF7A1FA206889
:1052200008F0EEF800204BE710B5B6B004461421A4
:1052300031A8FBF779FABC2102A8FBF775FA2349DC
:105240002068884240D14FF4802002908000239053
:1052500002A801F029FA08B1FCF7EDF800F0F6F821
:1052600000BF1B48006840F001001949086008466B
:10527000006800F00100019000BF00BF4FF4C05073
:105280003190022032900020339034900A203590E3
:1052900031A91048FEF7BCFE00BF0D480838006871
:1052A00040F000600A49083908600846006800F0CC
:1052B0000060019000BF00BF002211466520FFF78B
:1052C00091F86520FFF77AF836B010BD000008406D
:1052D000E04402580000025870B504460125E06819
:1052E00008B9002506E0E068022801D1012501E0A7
:1052F000FCF7A1F82946D4F8040407F08EFBD4F893
:10530000040407F033FB70BD10B50446D4F8040460
:1053100007F062FB10BD10B50446D4F8040407F092
:1053200066FB10BD70B504460D4600BF94F8BC0383
:10533000012801D1022070BD012084F8BC0300BF08
:1053400084F838502946206808F0CFFD00BF0020BF
:1053500084F8BC0300BF00BFEDE710B5044604F5B8
:105360007171D4F8040407F06FFB10BD70B50446EA
:10537000256800BF94F8BC03012801D1022070BD4C
:10538000012084F8BC0300BFA06A012806D1A069EF
:10539000012803D0A86B40F48030A863206808F08F
:1053A0008FFC206808F01AF800BF002084F8BC03C6
:1053B00000BF00BFE3E7000010B50446D4F80404C2
:1053C00007F09FFB2068D0F8000E40F00100216834
:1053D000C1F8000E206A28B10348006840F00600BA
:1053E0000149086010BD000010ED00E070B50446F2
:1053F00015480068C0F3800048B91348006800F001
:105400000700A04201D0012070BD0020FCE70E483B
:10541000006820F0070020430B490860FEF7FCFEFF
:10542000054607E0FEF7F8FE401BB0F57A7F01D98C
:105430000120E9E7044808380068C0F3403000283C
:10544000F0D00020E0E700000C4802580348006854
:1054500040F0807001490860704700000C48025815
:105460002DE9F84304460D461746FEF7D5FE804663
:10547000A86900B100BFE86900B100BF286A00B1A7
:1054800000BF00BF94F84000012802D10220BDE80F
:10549000F883012084F8400000BF94F841000128FF
:1054A00028D100206064022084F841004346002295
:1054B00020212046009704F063FE0646DEB9002254
:1054C0002946204604F0C0FC686A78B943460122A8
:1054D00002212046009704F053FE06465EB90220E2
:1054E0002168C860012084F8410004E0012084F8AC
:1054F000410000E0022600BF002084F8400000BF09
:105500003046C4E7F8B50446FEF786FE06460CB9F9
:105510000120F8BD206A402800D000BF94F8410067
:1055200038B9204600F046F841F28831204600F0B4
:105530004BF92068006820F47061A068401E41EAC1
:10554000002021680860A06C3346002220210090D2
:10555000204604F015FE054635BB2179E06840EA97
:105560000160E1690843216A0843216809680F4A1C
:105570001140084321680860208A616941EA0040BF
:10558000A169084321684968094A11400843216814
:1055900048602068006840F0010021680860002031
:1055A0006064012084F841002846B2E72FFFFF0025
:1055B000FEF8E0FF10B5B6B00446142131A8FBF7A1
:1055C000B3F8BC2102A8FBF7AFF841492068884234
:1055D0007BD14FF0007002900020149002A801F0DF
:1055E00063F808B1FBF727FF00BF3A48006840F4B2
:1055F0008040384908600846006800F48040019007
:1056000000BF00BF00BF33480C30006840F01000FE
:1056100030490C3108600846006800F01000019025
:1056200000BF00BF00BF0846006840F002000860ED
:105630000846006800F00200019000BF00BF00BFF4
:105640000846006840F0080008600846006800F05E
:105650000800019000BF00BF04203190022032906A
:1056600000203390032034900920359031A91A4846
:10567000FEF7CEFC042031900220329000203390BF
:10568000032034900920359031A91448FEF7C0FC5E
:105690004FF460503190022032900020339003206C
:1056A00034900920359031A90D48FEF7B1FC402017
:1056B00031900220329001203390032034900A2050
:1056C000359031A90548FEF7A3FC36B010BD0000A7
:1056D00000500052D44402580010025800040258EE
:1056E000000C02582DE9F84F04460E4617460025D7
:1056F000FEF792FD80462068D0F81890206800F1EF
:10570000200A00BF94F84000012802D10220BDE821
:10571000F88F012084F8400000BF94F84100012870
:105720004AD100206064002E40D0222084F841003D
:1057300020680069401CA06320680069401C606309
:1057400026632068406920F0406040F08060216856
:1057500048612068C0F8189013E0434601220621F2
:105760002046009704F00CFD054605B10CE09AF8C0
:105770000000216B0870206B401C2063A06B401E52
:10578000A063A06B0028E8D100BF5DB943460122A9
:1057900002212046009704F0F3FC054615B90220CB
:1057A0002168C860012084F8410006E0606C40F088
:1057B00008006064012500E0022500BF002084F895
:1057C000400000BF2846A2E7816470472DE9F843F6
:1057D00004460E4617460025FEF71EFD804620684B
:1057E00000F1200900BF94F84000012802D10220F6
:1057F000BDE8F883012084F8400000BF94F8410020
:10580000012845D100206064002E3BD0122084F88E
:10581000410020680069401CE06220680069401C6B
:10582000A06266622068406920F04060216848619B
:1058300013E04346012204212046009704F0A0FC17
:10584000054605B10CE0606A007889F80000606ADE
:10585000401C6062E06A401EE062E06A0028E8D115
:1058600000BF5DB94346012202212046009704F0A3
:1058700087FC054615B902202168C860012084F81C
:10588000410006E0606C40F008006064012500E023
:10589000022500BF002084F8400000BF2846A7E78B
:1058A00010B501F043FE05490968C1F30211044A2D
:1058B000515C01F01F01C84010BD00002044025897
:1058C00050EF000870B50146844D2D6805F00303C4
:1058D000824D2D68C5F30510804D2D1D2D6805F0F6
:1058E00001047E4D0C352D68C5F3CC0515FB04F580
:1058F00001EE105AB8EE411AF0EE410A00286FD0BE
:1059000023B1012B4ED0022B6BD16BE0734D283DA0
:105910002D68C5F340153DB3704D283D2D68C5F386
:10592000C1066F4D25FA06F201EE102AF8EE411A73
:1059300001EE100AB8EE411A81EE812A9FED691A34
:10594000C0EE811A654D08352D68C5F3080501EED6
:10595000105AB8EE411A31EE811AF7EE001A31EE04
:10596000211A22EE010A1CE001EE100AB8EE411ADB
:10597000DFED5D1A81EE812A9FED5A1AC0EE811A81
:10598000564D08352D68C5F3080501EE105AB8EEDE
:10599000411A31EE811AF7EE001A31EE211A22EE89
:1059A000010A5BE001EE100AB8EE411ADFED4F1A72
:1059B00081EE812A9FED4B1AC0EE811A474D0835C2
:1059C0002D68C5F3080501EE105AB8EE411A31EE04
:1059D000811AF7EE001A31EE211A22EE010A3DE09B
:1059E00077E01DE001EE100AB8EE411A9FED402A63
:1059F000C2EE011A9FED3B1A80EE812A374D083521
:105A00002D68C5F3080501EE105AB8EE411A32EEC2
:105A1000011AB7EE002A31EE021A21EE810A1DE0CA
:105A200001EE100AB8EE411ADFED2F1A81EE812A3D
:105A30009FED2C1AC0EE811A284D08352D68C5F34C
:105A4000080501EE105AB8EE411A31EE811AF7EE50
:105A5000001A31EE211A22EE010A00BF00BF1F4DCD
:105A600008352D68C5F3462501EE105AB8EE411AE7
:105A7000F7EE001A31EE211AC0EE011ABCEEE11A5F
:105A800081ED001A154D08352D68C5F3064501EE68
:105A9000105AB8EE411AF7EE001A31EE211AC0EE94
:105AA000011ABCEEE11A81ED011A0C4D08352D6882
:105AB000C5F3066501EE105AB8EE411AF7EE001A6A
:105AC00031EE211AC0EE011ABCEEE11A81ED021A84
:105AD00003E000250D604D608D6070BD28440258C4
